{
  "_format": "hh-sol-artifact-1",
  "contractName": "TAW",
  "sourceName": "contracts/TAW2.sol",
  "abi": [
    {
      "inputs": [
        {
          "internalType": "string",
          "name": "baseURI",
          "type": "string"
        }
      ],
      "stateMutability": "nonpayable",
      "type": "constructor"
    },
    {
      "inputs": [],
      "name": "ApprovalCallerNotOwnerNorApproved",
      "type": "error"
    },
    {
      "inputs": [],
      "name": "ApprovalQueryForNonexistentToken",
      "type": "error"
    },
    {
      "inputs": [],
      "name": "ApproveToCaller",
      "type": "error"
    },
    {
      "inputs": [],
      "name": "BalanceQueryForZeroAddress",
      "type": "error"
    },
    {
      "inputs": [],
      "name": "MintERC2309QuantityExceedsLimit",
      "type": "error"
    },
    {
      "inputs": [],
      "name": "MintToZeroAddress",
      "type": "error"
    },
    {
      "inputs": [],
      "name": "MintZeroQuantity",
      "type": "error"
    },
    {
      "inputs": [],
      "name": "OwnerQueryForNonexistentToken",
      "type": "error"
    },
    {
      "inputs": [],
      "name": "OwnershipNotInitializedForExtraData",
      "type": "error"
    },
    {
      "inputs": [],
      "name": "TransferCallerNotOwnerNorApproved",
      "type": "error"
    },
    {
      "inputs": [],
      "name": "TransferFromIncorrectOwner",
      "type": "error"
    },
    {
      "inputs": [],
      "name": "TransferToNonERC721ReceiverImplementer",
      "type": "error"
    },
    {
      "inputs": [],
      "name": "TransferToZeroAddress",
      "type": "error"
    },
    {
      "inputs": [],
      "name": "URIQueryForNonexistentToken",
      "type": "error"
    },
    {
      "anonymous": false,
      "inputs": [
        {
          "indexed": true,
          "internalType": "address",
          "name": "owner",
          "type": "address"
        },
        {
          "indexed": true,
          "internalType": "address",
          "name": "approved",
          "type": "address"
        },
        {
          "indexed": true,
          "internalType": "uint256",
          "name": "tokenId",
          "type": "uint256"
        }
      ],
      "name": "Approval",
      "type": "event"
    },
    {
      "anonymous": false,
      "inputs": [
        {
          "indexed": true,
          "internalType": "address",
          "name": "owner",
          "type": "address"
        },
        {
          "indexed": true,
          "internalType": "address",
          "name": "operator",
          "type": "address"
        },
        {
          "indexed": false,
          "internalType": "bool",
          "name": "approved",
          "type": "bool"
        }
      ],
      "name": "ApprovalForAll",
      "type": "event"
    },
    {
      "anonymous": false,
      "inputs": [
        {
          "indexed": true,
          "internalType": "uint256",
          "name": "fromTokenId",
          "type": "uint256"
        },
        {
          "indexed": false,
          "internalType": "uint256",
          "name": "toTokenId",
          "type": "uint256"
        },
        {
          "indexed": true,
          "internalType": "address",
          "name": "from",
          "type": "address"
        },
        {
          "indexed": true,
          "internalType": "address",
          "name": "to",
          "type": "address"
        }
      ],
      "name": "ConsecutiveTransfer",
      "type": "event"
    },
    {
      "anonymous": false,
      "inputs": [
        {
          "indexed": true,
          "internalType": "address",
          "name": "previousOwner",
          "type": "address"
        },
        {
          "indexed": true,
          "internalType": "address",
          "name": "newOwner",
          "type": "address"
        }
      ],
      "name": "OwnershipTransferred",
      "type": "event"
    },
    {
      "anonymous": false,
      "inputs": [
        {
          "indexed": true,
          "internalType": "address",
          "name": "from",
          "type": "address"
        },
        {
          "indexed": true,
          "internalType": "address",
          "name": "to",
          "type": "address"
        },
        {
          "indexed": true,
          "internalType": "uint256",
          "name": "tokenId",
          "type": "uint256"
        }
      ],
      "name": "Transfer",
      "type": "event"
    },
    {
      "stateMutability": "payable",
      "type": "fallback"
    },
    {
      "inputs": [],
      "name": "_paused",
      "outputs": [
        {
          "internalType": "bool",
          "name": "",
          "type": "bool"
        }
      ],
      "stateMutability": "view",
      "type": "function"
    },
    {
      "inputs": [],
      "name": "_price",
      "outputs": [
        {
          "internalType": "uint256",
          "name": "",
          "type": "uint256"
        }
      ],
      "stateMutability": "view",
      "type": "function"
    },
    {
      "inputs": [
        {
          "internalType": "address",
          "name": "to",
          "type": "address"
        },
        {
          "internalType": "uint256",
          "name": "tokenId",
          "type": "uint256"
        }
      ],
      "name": "approve",
      "outputs": [],
      "stateMutability": "nonpayable",
      "type": "function"
    },
    {
      "inputs": [
        {
          "internalType": "address",
          "name": "owner",
          "type": "address"
        }
      ],
      "name": "balanceOf",
      "outputs": [
        {
          "internalType": "uint256",
          "name": "",
          "type": "uint256"
        }
      ],
      "stateMutability": "view",
      "type": "function"
    },
    {
      "inputs": [
        {
          "internalType": "uint256",
          "name": "tokenId",
          "type": "uint256"
        }
      ],
      "name": "getApproved",
      "outputs": [
        {
          "internalType": "address",
          "name": "",
          "type": "address"
        }
      ],
      "stateMutability": "view",
      "type": "function"
    },
    {
      "inputs": [
        {
          "internalType": "address",
          "name": "owner",
          "type": "address"
        },
        {
          "internalType": "address",
          "name": "operator",
          "type": "address"
        }
      ],
      "name": "isApprovedForAll",
      "outputs": [
        {
          "internalType": "bool",
          "name": "",
          "type": "bool"
        }
      ],
      "stateMutability": "view",
      "type": "function"
    },
    {
      "inputs": [],
      "name": "maxSupply",
      "outputs": [
        {
          "internalType": "uint256",
          "name": "",
          "type": "uint256"
        }
      ],
      "stateMutability": "view",
      "type": "function"
    },
    {
      "inputs": [
        {
          "internalType": "uint256",
          "name": "quantity",
          "type": "uint256"
        }
      ],
      "name": "mint",
      "outputs": [],
      "stateMutability": "payable",
      "type": "function"
    },
    {
      "inputs": [],
      "name": "name",
      "outputs": [
        {
          "internalType": "string",
          "name": "",
          "type": "string"
        }
      ],
      "stateMutability": "view",
      "type": "function"
    },
    {
      "inputs": [],
      "name": "owner",
      "outputs": [
        {
          "internalType": "address",
          "name": "",
          "type": "address"
        }
      ],
      "stateMutability": "view",
      "type": "function"
    },
    {
      "inputs": [
        {
          "internalType": "uint256",
          "name": "tokenId",
          "type": "uint256"
        }
      ],
      "name": "ownerOf",
      "outputs": [
        {
          "internalType": "address",
          "name": "",
          "type": "address"
        }
      ],
      "stateMutability": "view",
      "type": "function"
    },
    {
      "inputs": [],
      "name": "renounceOwnership",
      "outputs": [],
      "stateMutability": "nonpayable",
      "type": "function"
    },
    {
      "inputs": [],
      "name": "reserveNFTs",
      "outputs": [],
      "stateMutability": "nonpayable",
      "type": "function"
    },
    {
      "inputs": [
        {
          "internalType": "address",
          "name": "from",
          "type": "address"
        },
        {
          "internalType": "address",
          "name": "to",
          "type": "address"
        },
        {
          "internalType": "uint256",
          "name": "tokenId",
          "type": "uint256"
        }
      ],
      "name": "safeTransferFrom",
      "outputs": [],
      "stateMutability": "nonpayable",
      "type": "function"
    },
    {
      "inputs": [
        {
          "internalType": "address",
          "name": "from",
          "type": "address"
        },
        {
          "internalType": "address",
          "name": "to",
          "type": "address"
        },
        {
          "internalType": "uint256",
          "name": "tokenId",
          "type": "uint256"
        },
        {
          "internalType": "bytes",
          "name": "_data",
          "type": "bytes"
        }
      ],
      "name": "safeTransferFrom",
      "outputs": [],
      "stateMutability": "nonpayable",
      "type": "function"
    },
    {
      "inputs": [
        {
          "internalType": "address",
          "name": "operator",
          "type": "address"
        },
        {
          "internalType": "bool",
          "name": "approved",
          "type": "bool"
        }
      ],
      "name": "setApprovalForAll",
      "outputs": [],
      "stateMutability": "nonpayable",
      "type": "function"
    },
    {
      "inputs": [
        {
          "internalType": "bool",
          "name": "val",
          "type": "bool"
        }
      ],
      "name": "setPaused",
      "outputs": [],
      "stateMutability": "nonpayable",
      "type": "function"
    },
    {
      "inputs": [
        {
          "internalType": "bytes4",
          "name": "interfaceId",
          "type": "bytes4"
        }
      ],
      "name": "supportsInterface",
      "outputs": [
        {
          "internalType": "bool",
          "name": "",
          "type": "bool"
        }
      ],
      "stateMutability": "view",
      "type": "function"
    },
    {
      "inputs": [],
      "name": "symbol",
      "outputs": [
        {
          "internalType": "string",
          "name": "",
          "type": "string"
        }
      ],
      "stateMutability": "view",
      "type": "function"
    },
    {
      "inputs": [
        {
          "internalType": "uint256",
          "name": "tokenId",
          "type": "uint256"
        }
      ],
      "name": "tokenURI",
      "outputs": [
        {
          "internalType": "string",
          "name": "",
          "type": "string"
        }
      ],
      "stateMutability": "view",
      "type": "function"
    },
    {
      "inputs": [],
      "name": "totalSupply",
      "outputs": [
        {
          "internalType": "uint256",
          "name": "",
          "type": "uint256"
        }
      ],
      "stateMutability": "view",
      "type": "function"
    },
    {
      "inputs": [
        {
          "internalType": "address",
          "name": "from",
          "type": "address"
        },
        {
          "internalType": "address",
          "name": "to",
          "type": "address"
        },
        {
          "internalType": "uint256",
          "name": "tokenId",
          "type": "uint256"
        }
      ],
      "name": "transferFrom",
      "outputs": [],
      "stateMutability": "nonpayable",
      "type": "function"
    },
    {
      "inputs": [
        {
          "internalType": "address",
          "name": "newOwner",
          "type": "address"
        }
      ],
      "name": "transferOwnership",
      "outputs": [],
      "stateMutability": "nonpayable",
      "type": "function"
    },
    {
      "inputs": [],
      "name": "viewNFT",
      "outputs": [
        {
          "internalType": "uint256",
          "name": "",
          "type": "uint256"
        }
      ],
      "stateMutability": "view",
      "type": "function"
    },
    {
      "inputs": [],
      "name": "withdraw",
      "outputs": [],
      "stateMutability": "nonpayable",
      "type": "function"
    },
    {
      "stateMutability": "payable",
      "type": "receive"
    }
  ],
  "bytecode": "0x60806040526001600a55670354a6ba7a180000600c556115b3600e5573ad2a71c0da7c07df25af2b62e2915b671c750535601060006101000a81548173ffffffffffffffffffffffffffffffffffffffff021916908373ffffffffffffffffffffffffffffffffffffffff1602179055503480156200007d57600080fd5b50604051620030f4380380620030f48339818101604052810190620000a39190620003a3565b6040518060400160405280601281526020017f546865204177616b656e656420576f6d616e00000000000000000000000000008152506040518060400160405280600381526020017f54415700000000000000000000000000000000000000000000000000000000008152506200012f62000123620001a060201b60201c565b620001a860201b60201c565b6001808190555081600490805190602001906200014e92919062000275565b5080600590805190602001906200016792919062000275565b50620001786200026c60201b60201c565b600281905550505080600b90805190602001906200019892919062000275565b505062000578565b600033905090565b60008060009054906101000a900473ffffffffffffffffffffffffffffffffffffffff169050816000806101000a81548173ffffffffffffffffffffffffffffffffffffffff021916908373ffffffffffffffffffffffffffffffffffffffff1602179055508173ffffffffffffffffffffffffffffffffffffffff168173ffffffffffffffffffffffffffffffffffffffff167f8be0079c531659141344cd1fd0a4f28419497f9722a3daafe3b4186f6b6457e060405160405180910390a35050565b60006001905090565b828054620002839062000489565b90600052602060002090601f016020900481019282620002a75760008555620002f3565b82601f10620002c257805160ff1916838001178555620002f3565b82800160010185558215620002f3579182015b82811115620002f2578251825591602001919060010190620002d5565b5b50905062000302919062000306565b5090565b5b808211156200032157600081600090555060010162000307565b5090565b60006200033c62000336846200041d565b620003f4565b9050828152602081018484840111156200035b576200035a62000558565b5b6200036884828562000453565b509392505050565b600082601f83011262000388576200038762000553565b5b81516200039a84826020860162000325565b91505092915050565b600060208284031215620003bc57620003bb62000562565b5b600082015167ffffffffffffffff811115620003dd57620003dc6200055d565b5b620003eb8482850162000370565b91505092915050565b60006200040062000413565b90506200040e8282620004bf565b919050565b6000604051905090565b600067ffffffffffffffff8211156200043b576200043a62000524565b5b620004468262000567565b9050602081019050919050565b60005b838110156200047357808201518184015260208101905062000456565b8381111562000483576000848401525b50505050565b60006002820490506001821680620004a257607f821691505b60208210811415620004b957620004b8620004f5565b5b50919050565b620004ca8262000567565b810181811067ffffffffffffffff82111715620004ec57620004eb62000524565b5b80604052505050565b7f4e487b7100000000000000000000000000000000000000000000000000000000600052602260045260246000fd5b7f4e487b7100000000000000000000000000000000000000000000000000000000600052604160045260246000fd5b600080fd5b600080fd5b600080fd5b600080fd5b6000601f19601f8301169050919050565b612b6c80620005886000396000f3fe60806040526004361061016a5760003560e01c8063609f6428116100d1578063a0712d681161008a578063c87b56dd11610064578063c87b56dd146104eb578063d5abeb0114610528578063e985e9c514610553578063f2fde38b1461059057610171565b8063a0712d681461047d578063a22cb46514610499578063b88d4fde146104c257610171565b8063609f64281461036b5780636352211e1461039657806370a08231146103d3578063715018a6146104105780638da5cb5b1461042757806395d89b411461045257610171565b806316c61ccc1161012357806316c61ccc1461028157806318160ddd146102ac578063235b6ea1146102d757806323b872dd146103025780633ccfd60b1461032b57806342842e0e1461034257610171565b806301ffc9a71461017357806306fdde03146101b0578063081812fc146101db578063095ea7b314610218578063144100c71461024157806316c38b3c1461025857610171565b3661017157005b005b34801561017f57600080fd5b5061019a600480360381019061019591906120fa565b6105b9565b6040516101a7919061244f565b60405180910390f35b3480156101bc57600080fd5b506101c561064b565b6040516101d2919061246a565b60405180910390f35b3480156101e757600080fd5b5061020260048036038101906101fd9190612154565b6106dd565b60405161020f91906123e8565b60405180910390f35b34801561022457600080fd5b5061023f600480360381019061023a919061208d565b61075c565b005b34801561024d57600080fd5b506102566108a0565b005b34801561026457600080fd5b5061027f600480360381019061027a91906120cd565b610a25565b005b34801561028d57600080fd5b50610296610a4a565b6040516102a3919061244f565b60405180910390f35b3480156102b857600080fd5b506102c1610a5d565b6040516102ce91906125ac565b60405180910390f35b3480156102e357600080fd5b506102ec610a70565b6040516102f991906125ac565b60405180910390f35b34801561030e57600080fd5b5061032960048036038101906103249190611f77565b610a76565b005b34801561033757600080fd5b50610340610d9b565b005b34801561034e57600080fd5b5061036960048036038101906103649190611f77565b610f5d565b005b34801561037757600080fd5b50610380610f7d565b60405161038d91906125ac565b60405180910390f35b3480156103a257600080fd5b506103bd60048036038101906103b89190612154565b610fc4565b6040516103ca91906123e8565b60405180910390f35b3480156103df57600080fd5b506103fa60048036038101906103f59190611f0a565b610fd6565b60405161040791906125ac565b60405180910390f35b34801561041c57600080fd5b5061042561108f565b005b34801561043357600080fd5b5061043c6110a3565b60405161044991906123e8565b60405180910390f35b34801561045e57600080fd5b506104676110cc565b604051610474919061246a565b60405180910390f35b61049760048036038101906104929190612154565b61115e565b005b3480156104a557600080fd5b506104c060048036038101906104bb919061204d565b61131e565b005b3480156104ce57600080fd5b506104e960048036038101906104e49190611fca565b611496565b005b3480156104f757600080fd5b50610512600480360381019061050d9190612154565b611509565b60405161051f919061246a565b60405180910390f35b34801561053457600080fd5b5061053d6115a8565b60405161054a91906125ac565b60405180910390f35b34801561055f57600080fd5b5061057a60048036038101906105759190611f37565b6115ae565b604051610587919061244f565b60405180910390f35b34801561059c57600080fd5b506105b760048036038101906105b29190611f0a565b611642565b005b60006301ffc9a760e01b827bffffffffffffffffffffffffffffffffffffffffffffffffffffffff1916148061061457506380ac58cd60e01b827bffffffffffffffffffffffffffffffffffffffffffffffffffffffff1916145b806106445750635b5e139f60e01b827bffffffffffffffffffffffffffffffffffffffffffffffffffffffff1916145b9050919050565b60606004805461065a90612805565b80601f016020809104026020016040519081016040528092919081815260200182805461068690612805565b80156106d35780601f106106a8576101008083540402835291602001916106d3565b820191906000526020600020905b8154815290600101906020018083116106b657829003601f168201915b5050505050905090565b60006106e8826116c6565b61071e576040517fcf4700e400000000000000000000000000000000000000000000000000000000815260040160405180910390fd5b6008600083815260200190815260200160002060000160009054906101000a900473ffffffffffffffffffffffffffffffffffffffff169050919050565b600061076782610fc4565b90508073ffffffffffffffffffffffffffffffffffffffff16610788611725565b73ffffffffffffffffffffffffffffffffffffffff16146107eb576107b4816107af611725565b6115ae565b6107ea576040517fcfb3b94200000000000000000000000000000000000000000000000000000000815260040160405180910390fd5b5b826008600084815260200190815260200160002060000160006101000a81548173ffffffffffffffffffffffffffffffffffffffff021916908373ffffffffffffffffffffffffffffffffffffffff160217905550818373ffffffffffffffffffffffffffffffffffffffff168273ffffffffffffffffffffffffffffffffffffffff167f8c5be1e5ebec7d5bd14f71427d1e84f3dd0314c0f7b2291e5b200ac8c7c3b92560405160405180910390a4505050565b601060009054906101000a900473ffffffffffffffffffffffffffffffffffffffff1673ffffffffffffffffffffffffffffffffffffffff163373ffffffffffffffffffffffffffffffffffffffff1614610930576040517f08c379a00000000000000000000000000000000000000000000000000000000081526004016109279061258c565b60405180910390fd5b60026001541415610976576040517f08c379a000000000000000000000000000000000000000000000000000000000815260040161096d9061254c565b60405180910390fd5b60026001819055506064600e5461098d919061271b565b610995610a5d565b106109d5576040517f08c379a00000000000000000000000000000000000000000000000000000000081526004016109cc9061256c565b60405180910390fd5b610a02601060009054906101000a900473ffffffffffffffffffffffffffffffffffffffff16606461172d565b6064600a6000828254610a15919061266b565b9250508190555060018081905550565b610a2d6118eb565b80600d60006101000a81548160ff02191690831515021790555050565b600d60009054906101000a900460ff1681565b6000610a67611969565b600a5403905090565b600c5481565b6000610a8182611972565b90508373ffffffffffffffffffffffffffffffffffffffff168173ffffffffffffffffffffffffffffffffffffffff1614610ae8576040517fa114810000000000000000000000000000000000000000000000000000000000815260040160405180910390fd5b600080610af484611a40565b91509150610b0a8187610b05611725565b611a67565b610b5657610b1f86610b1a611725565b6115ae565b610b55576040517f59c896be00000000000000000000000000000000000000000000000000000000815260040160405180910390fd5b5b600073ffffffffffffffffffffffffffffffffffffffff168573ffffffffffffffffffffffffffffffffffffffff161415610bbd576040517fea553b3400000000000000000000000000000000000000000000000000000000815260040160405180910390fd5b610bca8686866001611aab565b8015610bd557600082555b600760008773ffffffffffffffffffffffffffffffffffffffff1673ffffffffffffffffffffffffffffffffffffffff168152602001908152602001600020600081546001900391905081905550600760008673ffffffffffffffffffffffffffffffffffffffff1673ffffffffffffffffffffffffffffffffffffffff1681526020019081526020016000206000815460010191905081905550610ca385610c7f888887611ab1565b7c020000000000000000000000000000000000000000000000000000000017611ad9565b600660008681526020019081526020016000208190555060007c020000000000000000000000000000000000000000000000000000000084161415610d2b576000600185019050600060066000838152602001908152602001600020541415610d29576002548114610d28578360066000838152602001908152602001600020819055505b5b505b838573ffffffffffffffffffffffffffffffffffffffff168773ffffffffffffffffffffffffffffffffffffffff167fddf252ad1be2c89b69c2b068fc378daa952ba7f163c4a11628f55a4df523b3ef60405160405180910390a4610d938686866001611b04565b505050505050565b601060009054906101000a900473ffffffffffffffffffffffffffffffffffffffff1673ffffffffffffffffffffffffffffffffffffffff163373ffffffffffffffffffffffffffffffffffffffff1614610e2b576040517f08c379a0000000000000000000000000000000000000000000000000000000008152600401610e229061258c565b60405180910390fd5b60026001541415610e71576040517f08c379a0000000000000000000000000000000000000000000000000000000008152600401610e689061254c565b60405180910390fd5b60026001819055506000601060009054906101000a900473ffffffffffffffffffffffffffffffffffffffff169050600047905060008273ffffffffffffffffffffffffffffffffffffffff1682604051610ecb906123d3565b60006040518083038185875af1925050503d8060008114610f08576040519150601f19603f3d011682016040523d82523d6000602084013e610f0d565b606091505b5050905080610f51576040517f08c379a0000000000000000000000000000000000000000000000000000000008152600401610f48906124ac565b60405180910390fd5b50505060018081905550565b610f7883838360405180602001604052806000815250611496565b505050565b6000600f60003373ffffffffffffffffffffffffffffffffffffffff1673ffffffffffffffffffffffffffffffffffffffff16815260200190815260200160002054905090565b6000610fcf82611972565b9050919050565b60008073ffffffffffffffffffffffffffffffffffffffff168273ffffffffffffffffffffffffffffffffffffffff16141561103e576040517f8f4eb60400000000000000000000000000000000000000000000000000000000815260040160405180910390fd5b67ffffffffffffffff600760008473ffffffffffffffffffffffffffffffffffffffff1673ffffffffffffffffffffffffffffffffffffffff16815260200190815260200160002054169050919050565b6110976118eb565b6110a16000611b0a565b565b60008060009054906101000a900473ffffffffffffffffffffffffffffffffffffffff16905090565b6060600580546110db90612805565b80601f016020809104026020016040519081016040528092919081815260200182805461110790612805565b80156111545780601f1061112957610100808354040283529160200191611154565b820191906000526020600020905b81548152906001019060200180831161113757829003601f168201915b5050505050905090565b600d60009054906101000a900460ff16156111ae576040517f08c379a00000000000000000000000000000000000000000000000000000000081526004016111a5906124ec565b60405180910390fd5b600260015414156111f4576040517f08c379a00000000000000000000000000000000000000000000000000000000081526004016111eb9061254c565b60405180910390fd5b60026001819055506000600a54905061120b610a5d565b600a541161124e576040517f08c379a00000000000000000000000000000000000000000000000000000000081526004016112459061252c565b60405180910390fd5b81600c5461125c91906126c1565b34101561129e576040517f08c379a00000000000000000000000000000000000000000000000000000000081526004016112959061250c565b60405180910390fd5b60058211156112ac57600080fd5b6112b6338361172d565b81600a60008282546112c8919061266b565b9250508190555080600f60003373ffffffffffffffffffffffffffffffffffffffff1673ffffffffffffffffffffffffffffffffffffffff16815260200190815260200160002081905550506001808190555050565b611326611725565b73ffffffffffffffffffffffffffffffffffffffff168273ffffffffffffffffffffffffffffffffffffffff16141561138b576040517fb06307db00000000000000000000000000000000000000000000000000000000815260040160405180910390fd5b8060096000611398611725565b73ffffffffffffffffffffffffffffffffffffffff1673ffffffffffffffffffffffffffffffffffffffff16815260200190815260200160002060008473ffffffffffffffffffffffffffffffffffffffff1673ffffffffffffffffffffffffffffffffffffffff16815260200190815260200160002060006101000a81548160ff0219169083151502179055508173ffffffffffffffffffffffffffffffffffffffff16611445611725565b73ffffffffffffffffffffffffffffffffffffffff167f17307eab39ab6107e8899845ad3d59bd9653f200f220920489ca2b5937696c318360405161148a919061244f565b60405180910390a35050565b6114a1848484610a76565b60008373ffffffffffffffffffffffffffffffffffffffff163b14611503576114cc84848484611bce565b611502576040517fd1a57ed600000000000000000000000000000000000000000000000000000000815260040160405180910390fd5b5b50505050565b6060611514826116c6565b61154a576040517fa14c4b5000000000000000000000000000000000000000000000000000000000815260040160405180910390fd5b6000611554611d2e565b905060008151141561157557604051806020016040528060008152506115a0565b8061157f84611dc0565b6040516020016115909291906123af565b6040516020818303038152906040525b915050919050565b600e5481565b6000600960008473ffffffffffffffffffffffffffffffffffffffff1673ffffffffffffffffffffffffffffffffffffffff16815260200190815260200160002060008373ffffffffffffffffffffffffffffffffffffffff1673ffffffffffffffffffffffffffffffffffffffff16815260200190815260200160002060009054906101000a900460ff16905092915050565b61164a6118eb565b600073ffffffffffffffffffffffffffffffffffffffff168173ffffffffffffffffffffffffffffffffffffffff1614156116ba576040517f08c379a00000000000000000000000000000000000000000000000000000000081526004016116b19061248c565b60405180910390fd5b6116c381611b0a565b50565b6000816116d1611969565b111580156116e0575060025482105b801561171e575060007c0100000000000000000000000000000000000000000000000000000000600660008581526020019081526020016000205416145b9050919050565b600033905090565b60006002549050600082141561176f576040517fb562e8dd00000000000000000000000000000000000000000000000000000000815260040160405180910390fd5b61177c6000848385611aab565b600160406001901b178202600760008573ffffffffffffffffffffffffffffffffffffffff1673ffffffffffffffffffffffffffffffffffffffff168152602001908152602001600020600082825401925050819055506117f3836117e46000866000611ab1565b6117ed85611e10565b17611ad9565b6006600083815260200190815260200160002081905550600080838301905073ffffffffffffffffffffffffffffffffffffffff85169150828260007fddf252ad1be2c89b69c2b068fc378daa952ba7f163c4a11628f55a4df523b3ef600080a4600183015b81811461189457808360007fddf252ad1be2c89b69c2b068fc378daa952ba7f163c4a11628f55a4df523b3ef600080a4600181019050611859565b5060008214156118d0576040517f2e07630000000000000000000000000000000000000000000000000000000000815260040160405180910390fd5b8060028190555050506118e66000848385611b04565b505050565b6118f3611e20565b73ffffffffffffffffffffffffffffffffffffffff166119116110a3565b73ffffffffffffffffffffffffffffffffffffffff1614611967576040517f08c379a000000000000000000000000000000000000000000000000000000000815260040161195e906124cc565b60405180910390fd5b565b60006001905090565b60008082905080611981611969565b11611a0957600254811015611a085760006006600083815260200190815260200160002054905060007c010000000000000000000000000000000000000000000000000000000082161415611a06575b60008114156119fc5760066000836001900393508381526020019081526020016000205490506119d1565b8092505050611a3b565b505b5b6040517fdf2d9b4200000000000000000000000000000000000000000000000000000000815260040160405180910390fd5b919050565b60008060006008600085815260200190815260200160002090508092508254915050915091565b600073ffffffffffffffffffffffffffffffffffffffff8316925073ffffffffffffffffffffffffffffffffffffffff821691508382148383141790509392505050565b50505050565b60008060e883901c905060e8611ac8868684611e28565b62ffffff16901b9150509392505050565b600073ffffffffffffffffffffffffffffffffffffffff83169250814260a01b178317905092915050565b50505050565b60008060009054906101000a900473ffffffffffffffffffffffffffffffffffffffff169050816000806101000a81548173ffffffffffffffffffffffffffffffffffffffff021916908373ffffffffffffffffffffffffffffffffffffffff1602179055508173ffffffffffffffffffffffffffffffffffffffff168173ffffffffffffffffffffffffffffffffffffffff167f8be0079c531659141344cd1fd0a4f28419497f9722a3daafe3b4186f6b6457e060405160405180910390a35050565b60008373ffffffffffffffffffffffffffffffffffffffff1663150b7a02611bf4611725565b8786866040518563ffffffff1660e01b8152600401611c169493929190612403565b602060405180830381600087803b158015611c3057600080fd5b505af1925050508015611c6157506040513d601f19601f82011682018060405250810190611c5e9190612127565b60015b611cdb573d8060008114611c91576040519150601f19603f3d011682016040523d82523d6000602084013e611c96565b606091505b50600081511415611cd3576040517fd1a57ed600000000000000000000000000000000000000000000000000000000815260040160405180910390fd5b805181602001fd5b63150b7a0260e01b7bffffffffffffffffffffffffffffffffffffffffffffffffffffffff1916817bffffffffffffffffffffffffffffffffffffffffffffffffffffffff191614915050949350505050565b6060600b8054611d3d90612805565b80601f0160208091040260200160405190810160405280929190818152602001828054611d6990612805565b8015611db65780601f10611d8b57610100808354040283529160200191611db6565b820191906000526020600020905b815481529060010190602001808311611d9957829003601f168201915b5050505050905090565b606060806040510190508060405280825b600115611dfc57600183039250600a81066030018353600a8104905080611df757611dfc565b611dd1565b508181036020830392508083525050919050565b60006001821460e11b9050919050565b600033905090565b60009392505050565b6000611e44611e3f846125ec565b6125c7565b905082815260208101848484011115611e6057611e5f6128fa565b5b611e6b8482856127c3565b509392505050565b600081359050611e8281612ada565b92915050565b600081359050611e9781612af1565b92915050565b600081359050611eac81612b08565b92915050565b600081519050611ec181612b08565b92915050565b600082601f830112611edc57611edb6128f5565b5b8135611eec848260208601611e31565b91505092915050565b600081359050611f0481612b1f565b92915050565b600060208284031215611f2057611f1f612904565b5b6000611f2e84828501611e73565b91505092915050565b60008060408385031215611f4e57611f4d612904565b5b6000611f5c85828601611e73565b9250506020611f6d85828601611e73565b9150509250929050565b600080600060608486031215611f9057611f8f612904565b5b6000611f9e86828701611e73565b9350506020611faf86828701611e73565b9250506040611fc086828701611ef5565b9150509250925092565b60008060008060808587031215611fe457611fe3612904565b5b6000611ff287828801611e73565b945050602061200387828801611e73565b935050604061201487828801611ef5565b925050606085013567ffffffffffffffff811115612035576120346128ff565b5b61204187828801611ec7565b91505092959194509250565b6000806040838503121561206457612063612904565b5b600061207285828601611e73565b925050602061208385828601611e88565b9150509250929050565b600080604083850312156120a4576120a3612904565b5b60006120b285828601611e73565b92505060206120c385828601611ef5565b9150509250929050565b6000602082840312156120e3576120e2612904565b5b60006120f184828501611e88565b91505092915050565b6000602082840312156121105761210f612904565b5b600061211e84828501611e9d565b91505092915050565b60006020828403121561213d5761213c612904565b5b600061214b84828501611eb2565b91505092915050565b60006020828403121561216a57612169612904565b5b600061217884828501611ef5565b91505092915050565b61218a8161274f565b82525050565b61219981612761565b82525050565b60006121aa8261261d565b6121b48185612633565b93506121c48185602086016127d2565b6121cd81612909565b840191505092915050565b60006121e382612628565b6121ed818561264f565b93506121fd8185602086016127d2565b61220681612909565b840191505092915050565b600061221c82612628565b6122268185612660565b93506122368185602086016127d2565b80840191505092915050565b600061224f60268361264f565b915061225a8261291a565b604082019050919050565b600061227260148361264f565b915061227d82612969565b602082019050919050565b600061229560208361264f565b91506122a082612992565b602082019050919050565b60006122b860198361264f565b91506122c3826129bb565b602082019050919050565b60006122db60198361264f565b91506122e6826129e4565b602082019050919050565b60006122fe600083612644565b915061230982612a0d565b600082019050919050565b600061232160198361264f565b915061232c82612a10565b602082019050919050565b6000612344601f8361264f565b915061234f82612a39565b602082019050919050565b600061236760148361264f565b915061237282612a62565b602082019050919050565b600061238a60238361264f565b915061239582612a8b565b604082019050919050565b6123a9816127b9565b82525050565b60006123bb8285612211565b91506123c78284612211565b91508190509392505050565b60006123de826122f1565b9150819050919050565b60006020820190506123fd6000830184612181565b92915050565b60006080820190506124186000830187612181565b6124256020830186612181565b61243260408301856123a0565b8181036060830152612444818461219f565b905095945050505050565b60006020820190506124646000830184612190565b92915050565b6000602082019050818103600083015261248481846121d8565b905092915050565b600060208201905081810360008301526124a581612242565b9050919050565b600060208201905081810360008301526124c581612265565b9050919050565b600060208201905081810360008301526124e581612288565b9050919050565b60006020820190508181036000830152612505816122ab565b9050919050565b60006020820190508181036000830152612525816122ce565b9050919050565b6000602082019050818103600083015261254581612314565b9050919050565b6000602082019050818103600083015261256581612337565b9050919050565b600060208201905081810360008301526125858161235a565b9050919050565b600060208201905081810360008301526125a58161237d565b9050919050565b60006020820190506125c160008301846123a0565b92915050565b60006125d16125e2565b90506125dd8282612837565b919050565b6000604051905090565b600067ffffffffffffffff821115612607576126066128c6565b5b61261082612909565b9050602081019050919050565b600081519050919050565b600081519050919050565b600082825260208201905092915050565b600081905092915050565b600082825260208201905092915050565b600081905092915050565b6000612676826127b9565b9150612681836127b9565b9250827fffffffffffffffffffffffffffffffffffffffffffffffffffffffffffffffff038211156126b6576126b5612868565b5b828201905092915050565b60006126cc826127b9565b91506126d7836127b9565b9250817fffffffffffffffffffffffffffffffffffffffffffffffffffffffffffffffff04831182151516156127105761270f612868565b5b828202905092915050565b6000612726826127b9565b9150612731836127b9565b92508282101561274457612743612868565b5b828203905092915050565b600061275a82612799565b9050919050565b60008115159050919050565b60007fffffffff0000000000000000000000000000000000000000000000000000000082169050919050565b600073ffffffffffffffffffffffffffffffffffffffff82169050919050565b6000819050919050565b82818337600083830152505050565b60005b838110156127f05780820151818401526020810190506127d5565b838111156127ff576000848401525b50505050565b6000600282049050600182168061281d57607f821691505b6020821081141561283157612830612897565b5b50919050565b61284082612909565b810181811067ffffffffffffffff8211171561285f5761285e6128c6565b5b80604052505050565b7f4e487b7100000000000000000000000000000000000000000000000000000000600052601160045260246000fd5b7f4e487b7100000000000000000000000000000000000000000000000000000000600052602260045260246000fd5b7f4e487b7100000000000000000000000000000000000000000000000000000000600052604160045260246000fd5b600080fd5b600080fd5b600080fd5b600080fd5b6000601f19601f8301169050919050565b7f4f776e61626c653a206e6577206f776e657220697320746865207a65726f206160008201527f6464726573730000000000000000000000000000000000000000000000000000602082015250565b7f4661696c656420746f2073656e64204574686572000000000000000000000000600082015250565b7f4f776e61626c653a2063616c6c6572206973206e6f7420746865206f776e6572600082015250565b7f436f6e74726163742063757272656e746c792070617573656400000000000000600082015250565b7f45746865722073656e74206973206e6f7420636f727265637400000000000000600082015250565b50565b7f457863656564206d6178696d756d2054415720737570706c7900000000000000600082015250565b7f5265656e7472616e637947756172643a207265656e7472616e742063616c6c00600082015250565b7f416374696f6e206e6f7420636f6d706c65746564000000000000000000000000600082015250565b7f4f6e6c79204f776e65722043616e2041636365737320546869732046756e637460008201527f696f6e0000000000000000000000000000000000000000000000000000000000602082015250565b612ae38161274f565b8114612aee57600080fd5b50565b612afa81612761565b8114612b0557600080fd5b50565b612b118161276d565b8114612b1c57600080fd5b50565b612b28816127b9565b8114612b3357600080fd5b5056fea2646970667358221220dac372bb3842939b49b4d6bdbf4a93a12ee4fed2fc554ce4e5203eb7a018f38964736f6c63430008060033",
  "linkReferences": {},
  "deployedLinkReferences": {}
}