{
  "_format": "hh-sol-artifact-1",
  "contractName": "TAW",
  "sourceName": "contracts/TAW2.sol",
  "abi": [
    {
      "inputs": [
        {
          "internalType": "string",
          "name": "baseURI",
          "type": "string"
        }
      ],
      "stateMutability": "nonpayable",
      "type": "constructor"
    },
    {
      "anonymous": false,
      "inputs": [
        {
          "indexed": true,
          "internalType": "address",
          "name": "owner",
          "type": "address"
        },
        {
          "indexed": true,
          "internalType": "address",
          "name": "approved",
          "type": "address"
        },
        {
          "indexed": true,
          "internalType": "uint256",
          "name": "tokenId",
          "type": "uint256"
        }
      ],
      "name": "Approval",
      "type": "event"
    },
    {
      "anonymous": false,
      "inputs": [
        {
          "indexed": true,
          "internalType": "address",
          "name": "owner",
          "type": "address"
        },
        {
          "indexed": true,
          "internalType": "address",
          "name": "operator",
          "type": "address"
        },
        {
          "indexed": false,
          "internalType": "bool",
          "name": "approved",
          "type": "bool"
        }
      ],
      "name": "ApprovalForAll",
      "type": "event"
    },
    {
      "anonymous": false,
      "inputs": [
        {
          "indexed": true,
          "internalType": "address",
          "name": "previousOwner",
          "type": "address"
        },
        {
          "indexed": true,
          "internalType": "address",
          "name": "newOwner",
          "type": "address"
        }
      ],
      "name": "OwnershipTransferred",
      "type": "event"
    },
    {
      "anonymous": false,
      "inputs": [
        {
          "indexed": true,
          "internalType": "address",
          "name": "from",
          "type": "address"
        },
        {
          "indexed": true,
          "internalType": "address",
          "name": "to",
          "type": "address"
        },
        {
          "indexed": true,
          "internalType": "uint256",
          "name": "tokenId",
          "type": "uint256"
        }
      ],
      "name": "Transfer",
      "type": "event"
    },
    {
      "stateMutability": "payable",
      "type": "fallback"
    },
    {
      "inputs": [],
      "name": "_paused",
      "outputs": [
        {
          "internalType": "bool",
          "name": "",
          "type": "bool"
        }
      ],
      "stateMutability": "view",
      "type": "function"
    },
    {
      "inputs": [],
      "name": "_price",
      "outputs": [
        {
          "internalType": "uint256",
          "name": "",
          "type": "uint256"
        }
      ],
      "stateMutability": "view",
      "type": "function"
    },
    {
      "inputs": [
        {
          "internalType": "address",
          "name": "to",
          "type": "address"
        },
        {
          "internalType": "uint256",
          "name": "tokenId",
          "type": "uint256"
        }
      ],
      "name": "approve",
      "outputs": [],
      "stateMutability": "nonpayable",
      "type": "function"
    },
    {
      "inputs": [
        {
          "internalType": "address",
          "name": "owner",
          "type": "address"
        }
      ],
      "name": "balanceOf",
      "outputs": [
        {
          "internalType": "uint256",
          "name": "",
          "type": "uint256"
        }
      ],
      "stateMutability": "view",
      "type": "function"
    },
    {
      "inputs": [
        {
          "internalType": "uint256",
          "name": "tokenId",
          "type": "uint256"
        }
      ],
      "name": "getApproved",
      "outputs": [
        {
          "internalType": "address",
          "name": "",
          "type": "address"
        }
      ],
      "stateMutability": "view",
      "type": "function"
    },
    {
      "inputs": [],
      "name": "getTokenIdsMinted",
      "outputs": [
        {
          "internalType": "uint256",
          "name": "",
          "type": "uint256"
        }
      ],
      "stateMutability": "view",
      "type": "function"
    },
    {
      "inputs": [
        {
          "internalType": "address",
          "name": "owner",
          "type": "address"
        },
        {
          "internalType": "address",
          "name": "operator",
          "type": "address"
        }
      ],
      "name": "isApprovedForAll",
      "outputs": [
        {
          "internalType": "bool",
          "name": "",
          "type": "bool"
        }
      ],
      "stateMutability": "view",
      "type": "function"
    },
    {
      "inputs": [],
      "name": "maxTokenIds",
      "outputs": [
        {
          "internalType": "uint256",
          "name": "",
          "type": "uint256"
        }
      ],
      "stateMutability": "view",
      "type": "function"
    },
    {
      "inputs": [],
      "name": "mint",
      "outputs": [],
      "stateMutability": "payable",
      "type": "function"
    },
    {
      "inputs": [],
      "name": "name",
      "outputs": [
        {
          "internalType": "string",
          "name": "",
          "type": "string"
        }
      ],
      "stateMutability": "view",
      "type": "function"
    },
    {
      "inputs": [],
      "name": "owner",
      "outputs": [
        {
          "internalType": "address",
          "name": "",
          "type": "address"
        }
      ],
      "stateMutability": "view",
      "type": "function"
    },
    {
      "inputs": [
        {
          "internalType": "uint256",
          "name": "tokenId",
          "type": "uint256"
        }
      ],
      "name": "ownerOf",
      "outputs": [
        {
          "internalType": "address",
          "name": "",
          "type": "address"
        }
      ],
      "stateMutability": "view",
      "type": "function"
    },
    {
      "inputs": [],
      "name": "renounceOwnership",
      "outputs": [],
      "stateMutability": "nonpayable",
      "type": "function"
    },
    {
      "inputs": [],
      "name": "reserveNFTs",
      "outputs": [],
      "stateMutability": "nonpayable",
      "type": "function"
    },
    {
      "inputs": [
        {
          "internalType": "address",
          "name": "from",
          "type": "address"
        },
        {
          "internalType": "address",
          "name": "to",
          "type": "address"
        },
        {
          "internalType": "uint256",
          "name": "tokenId",
          "type": "uint256"
        }
      ],
      "name": "safeTransferFrom",
      "outputs": [],
      "stateMutability": "nonpayable",
      "type": "function"
    },
    {
      "inputs": [
        {
          "internalType": "address",
          "name": "from",
          "type": "address"
        },
        {
          "internalType": "address",
          "name": "to",
          "type": "address"
        },
        {
          "internalType": "uint256",
          "name": "tokenId",
          "type": "uint256"
        },
        {
          "internalType": "bytes",
          "name": "data",
          "type": "bytes"
        }
      ],
      "name": "safeTransferFrom",
      "outputs": [],
      "stateMutability": "nonpayable",
      "type": "function"
    },
    {
      "inputs": [
        {
          "internalType": "address",
          "name": "operator",
          "type": "address"
        },
        {
          "internalType": "bool",
          "name": "approved",
          "type": "bool"
        }
      ],
      "name": "setApprovalForAll",
      "outputs": [],
      "stateMutability": "nonpayable",
      "type": "function"
    },
    {
      "inputs": [
        {
          "internalType": "bool",
          "name": "val",
          "type": "bool"
        }
      ],
      "name": "setPaused",
      "outputs": [],
      "stateMutability": "nonpayable",
      "type": "function"
    },
    {
      "inputs": [
        {
          "internalType": "bytes4",
          "name": "interfaceId",
          "type": "bytes4"
        }
      ],
      "name": "supportsInterface",
      "outputs": [
        {
          "internalType": "bool",
          "name": "",
          "type": "bool"
        }
      ],
      "stateMutability": "view",
      "type": "function"
    },
    {
      "inputs": [],
      "name": "symbol",
      "outputs": [
        {
          "internalType": "string",
          "name": "",
          "type": "string"
        }
      ],
      "stateMutability": "view",
      "type": "function"
    },
    {
      "inputs": [
        {
          "internalType": "uint256",
          "name": "index",
          "type": "uint256"
        }
      ],
      "name": "tokenByIndex",
      "outputs": [
        {
          "internalType": "uint256",
          "name": "",
          "type": "uint256"
        }
      ],
      "stateMutability": "view",
      "type": "function"
    },
    {
      "inputs": [
        {
          "internalType": "address",
          "name": "owner",
          "type": "address"
        },
        {
          "internalType": "uint256",
          "name": "index",
          "type": "uint256"
        }
      ],
      "name": "tokenOfOwnerByIndex",
      "outputs": [
        {
          "internalType": "uint256",
          "name": "",
          "type": "uint256"
        }
      ],
      "stateMutability": "view",
      "type": "function"
    },
    {
      "inputs": [
        {
          "internalType": "uint256",
          "name": "tokenId",
          "type": "uint256"
        }
      ],
      "name": "tokenURI",
      "outputs": [
        {
          "internalType": "string",
          "name": "",
          "type": "string"
        }
      ],
      "stateMutability": "view",
      "type": "function"
    },
    {
      "inputs": [],
      "name": "totalSupply",
      "outputs": [
        {
          "internalType": "uint256",
          "name": "",
          "type": "uint256"
        }
      ],
      "stateMutability": "view",
      "type": "function"
    },
    {
      "inputs": [
        {
          "internalType": "address",
          "name": "from",
          "type": "address"
        },
        {
          "internalType": "address",
          "name": "to",
          "type": "address"
        },
        {
          "internalType": "uint256",
          "name": "tokenId",
          "type": "uint256"
        }
      ],
      "name": "transferFrom",
      "outputs": [],
      "stateMutability": "nonpayable",
      "type": "function"
    },
    {
      "inputs": [
        {
          "internalType": "address",
          "name": "newOwner",
          "type": "address"
        }
      ],
      "name": "transferOwnership",
      "outputs": [],
      "stateMutability": "nonpayable",
      "type": "function"
    },
    {
      "inputs": [],
      "name": "viewNFT",
      "outputs": [
        {
          "internalType": "uint256",
          "name": "",
          "type": "uint256"
        }
      ],
      "stateMutability": "view",
      "type": "function"
    },
    {
      "inputs": [],
      "name": "withdraw",
      "outputs": [],
      "stateMutability": "nonpayable",
      "type": "function"
    },
    {
      "stateMutability": "payable",
      "type": "receive"
    }
  ],
  "bytecode": "0x6080604052662386f26fc10000600e556115b3601055731920fc6b2f0b4d741e1bb7e15703f94cd45c7f36601160006101000a81548173ffffffffffffffffffffffffffffffffffffffff021916908373ffffffffffffffffffffffffffffffffffffffff1602179055503480156200007757600080fd5b50604051620043fa380380620043fa83398181016040528101906200009d91906200037e565b6040518060400160405280601281526020017f546865204177616b656e656420576f6d616e00000000000000000000000000008152506040518060400160405280600381526020017f5441570000000000000000000000000000000000000000000000000000000000815250620001296200011d6200018460201b60201c565b6200018c60201b60201c565b6001808190555081600290805190602001906200014892919062000250565b5080600390805190602001906200016192919062000250565b50505080600d90805190602001906200017c92919062000250565b505062000553565b600033905090565b60008060009054906101000a900473ffffffffffffffffffffffffffffffffffffffff169050816000806101000a81548173ffffffffffffffffffffffffffffffffffffffff021916908373ffffffffffffffffffffffffffffffffffffffff1602179055508173ffffffffffffffffffffffffffffffffffffffff168173ffffffffffffffffffffffffffffffffffffffff167f8be0079c531659141344cd1fd0a4f28419497f9722a3daafe3b4186f6b6457e060405160405180910390a35050565b8280546200025e9062000464565b90600052602060002090601f016020900481019282620002825760008555620002ce565b82601f106200029d57805160ff1916838001178555620002ce565b82800160010185558215620002ce579182015b82811115620002cd578251825591602001919060010190620002b0565b5b509050620002dd9190620002e1565b5090565b5b80821115620002fc576000816000905550600101620002e2565b5090565b6000620003176200031184620003f8565b620003cf565b90508281526020810184848401111562000336576200033562000533565b5b620003438482856200042e565b509392505050565b600082601f8301126200036357620003626200052e565b5b81516200037584826020860162000300565b91505092915050565b6000602082840312156200039757620003966200053d565b5b600082015167ffffffffffffffff811115620003b857620003b762000538565b5b620003c6848285016200034b565b91505092915050565b6000620003db620003ee565b9050620003e982826200049a565b919050565b6000604051905090565b600067ffffffffffffffff821115620004165762000415620004ff565b5b620004218262000542565b9050602081019050919050565b60005b838110156200044e57808201518184015260208101905062000431565b838111156200045e576000848401525b50505050565b600060028204905060018216806200047d57607f821691505b60208210811415620004945762000493620004d0565b5b50919050565b620004a58262000542565b810181811067ffffffffffffffff82111715620004c757620004c6620004ff565b5b80604052505050565b7f4e487b7100000000000000000000000000000000000000000000000000000000600052602260045260246000fd5b7f4e487b7100000000000000000000000000000000000000000000000000000000600052604160045260246000fd5b600080fd5b600080fd5b600080fd5b600080fd5b6000601f19601f8301169050919050565b613e9780620005636000396000f3fe6080604052600436106101bb5760003560e01c80634f6ccce7116100ec57806395d89b411161008a578063c1f57ebb11610064578063c1f57ebb146105cf578063c87b56dd146105fa578063e985e9c514610637578063f2fde38b14610674576101c2565b806395d89b4114610552578063a22cb4651461057d578063b88d4fde146105a6576101c2565b80636352211e116100c65780636352211e1461049657806370a08231146104d3578063715018a6146105105780638da5cb5b14610527576101c2565b80634f6ccce7146104035780635f76962114610440578063609f64281461046b576101c2565b806316c61ccc1161015957806323b872dd1161013357806323b872dd1461035d5780632f745c59146103865780633ccfd60b146103c357806342842e0e146103da576101c2565b806316c61ccc146102dc57806318160ddd14610307578063235b6ea114610332576101c2565b8063095ea7b311610195578063095ea7b3146102695780631249c58b14610292578063144100c71461029c57806316c38b3c146102b3576101c2565b806301ffc9a7146101c457806306fdde0314610201578063081812fc1461022c576101c2565b366101c257005b005b3480156101d057600080fd5b506101eb60048036038101906101e69190612b29565b61069d565b6040516101f89190613096565b60405180910390f35b34801561020d57600080fd5b50610216610717565b60405161022391906130b1565b60405180910390f35b34801561023857600080fd5b50610253600480360381019061024e9190612b83565b6107a9565b604051610260919061302f565b60405180910390f35b34801561027557600080fd5b50610290600480360381019061028b9190612abc565b6107ef565b005b61029a610907565b005b3480156102a857600080fd5b506102b1610aca565b005b3480156102bf57600080fd5b506102da60048036038101906102d59190612afc565b610be3565b005b3480156102e857600080fd5b506102f1610c08565b6040516102fe9190613096565b60405180910390f35b34801561031357600080fd5b5061031c610c1b565b60405161032991906133f1565b60405180910390f35b34801561033e57600080fd5b50610347610c28565b60405161035491906133f1565b60405180910390f35b34801561036957600080fd5b50610384600480360381019061037f91906129a6565b610c2e565b005b34801561039257600080fd5b506103ad60048036038101906103a89190612abc565b610c8e565b6040516103ba91906133f1565b60405180910390f35b3480156103cf57600080fd5b506103d8610d33565b005b3480156103e657600080fd5b5061040160048036038101906103fc91906129a6565b610ef5565b005b34801561040f57600080fd5b5061042a60048036038101906104259190612b83565b610f15565b60405161043791906133f1565b60405180910390f35b34801561044c57600080fd5b50610455610f86565b60405161046291906133f1565b60405180910390f35b34801561047757600080fd5b50610480610f8c565b60405161048d91906133f1565b60405180910390f35b3480156104a257600080fd5b506104bd60048036038101906104b89190612b83565b610fd3565b6040516104ca919061302f565b60405180910390f35b3480156104df57600080fd5b506104fa60048036038101906104f59190612939565b611085565b60405161050791906133f1565b60405180910390f35b34801561051c57600080fd5b5061052561113d565b005b34801561053357600080fd5b5061053c611151565b604051610549919061302f565b60405180910390f35b34801561055e57600080fd5b5061056761117a565b60405161057491906130b1565b60405180910390f35b34801561058957600080fd5b506105a4600480360381019061059f9190612a7c565b61120c565b005b3480156105b257600080fd5b506105cd60048036038101906105c891906129f9565b611222565b005b3480156105db57600080fd5b506105e4611284565b6040516105f191906133f1565b60405180910390f35b34801561060657600080fd5b50610621600480360381019061061c9190612b83565b6112a1565b60405161062e91906130b1565b60405180910390f35b34801561064357600080fd5b5061065e60048036038101906106599190612966565b611348565b60405161066b9190613096565b60405180910390f35b34801561068057600080fd5b5061069b60048036038101906106969190612939565b6113dc565b005b60007f780e9d63000000000000000000000000000000000000000000000000000000007bffffffffffffffffffffffffffffffffffffffffffffffffffffffff1916827bffffffffffffffffffffffffffffffffffffffffffffffffffffffff19161480610710575061070f82611460565b5b9050919050565b60606002805461072690613621565b80601f016020809104026020016040519081016040528092919081815260200182805461075290613621565b801561079f5780601f106107745761010080835404028352916020019161079f565b820191906000526020600020905b81548152906001019060200180831161078257829003601f168201915b5050505050905090565b60006107b482611542565b6006600083815260200190815260200160002060009054906101000a900473ffffffffffffffffffffffffffffffffffffffff169050919050565b60006107fa82610fd3565b90508073ffffffffffffffffffffffffffffffffffffffff168373ffffffffffffffffffffffffffffffffffffffff16141561086b576040517f08c379a000000000000000000000000000000000000000000000000000000000815260040161086290613311565b60405180910390fd5b8073ffffffffffffffffffffffffffffffffffffffff1661088a61158d565b73ffffffffffffffffffffffffffffffffffffffff1614806108b957506108b8816108b361158d565b611348565b5b6108f8576040517f08c379a00000000000000000000000000000000000000000000000000000000081526004016108ef90613251565b60405180910390fd5b6109028383611595565b505050565b600f60009054906101000a900460ff1615610957576040517f08c379a000000000000000000000000000000000000000000000000000000000815260040161094e906132d1565b60405180910390fd5b6002600154141561099d576040517f08c379a0000000000000000000000000000000000000000000000000000000008152600401610994906133b1565b60405180910390fd5b600260018190555060006109b1600c61164e565b90506010546109c0600c61164e565b10610a00576040517f08c379a00000000000000000000000000000000000000000000000000000000081526004016109f790613351565b60405180910390fd5b600e54341015610a45576040517f08c379a0000000000000000000000000000000000000000000000000000000008152600401610a3c90613331565b60405180910390fd5b610a4f600c61165c565b610a72604051806060016040528060258152602001613e3d602591398233611672565b610a7c3382611711565b80601260003373ffffffffffffffffffffffffffffffffffffffff1673ffffffffffffffffffffffffffffffffffffffff168152602001908152602001600020819055505060018081905550565b601160009054906101000a900473ffffffffffffffffffffffffffffffffffffffff1673ffffffffffffffffffffffffffffffffffffffff163373ffffffffffffffffffffffffffffffffffffffff1614610b5a576040517f08c379a0000000000000000000000000000000000000000000000000000000008152600401610b51906133d1565b60405180910390fd5b6000610b66600c61164e565b9050601054606482610b7891906134b0565b10610bb8576040517f08c379a0000000000000000000000000000000000000000000000000000000008152600401610baf90613231565b60405180910390fd5b60005b6064811015610bdf57610bcc61172f565b8080610bd790613684565b915050610bbb565b5050565b610beb611754565b80600f60006101000a81548160ff02191690831515021790555050565b600f60009054906101000a900460ff1681565b6000600a80549050905090565b600e5481565b610c3f610c3961158d565b826117d2565b610c7e576040517f08c379a0000000000000000000000000000000000000000000000000000000008152600401610c7590613391565b60405180910390fd5b610c89838383611867565b505050565b6000610c9983611085565b8210610cda576040517f08c379a0000000000000000000000000000000000000000000000000000000008152600401610cd190613111565b60405180910390fd5b600860008473ffffffffffffffffffffffffffffffffffffffff1673ffffffffffffffffffffffffffffffffffffffff168152602001908152602001600020600083815260200190815260200160002054905092915050565b601160009054906101000a900473ffffffffffffffffffffffffffffffffffffffff1673ffffffffffffffffffffffffffffffffffffffff163373ffffffffffffffffffffffffffffffffffffffff1614610dc3576040517f08c379a0000000000000000000000000000000000000000000000000000000008152600401610dba906133d1565b60405180910390fd5b60026001541415610e09576040517f08c379a0000000000000000000000000000000000000000000000000000000008152600401610e00906133b1565b60405180910390fd5b60026001819055506000601160009054906101000a900473ffffffffffffffffffffffffffffffffffffffff169050600047905060008273ffffffffffffffffffffffffffffffffffffffff1682604051610e639061301a565b60006040518083038185875af1925050503d8060008114610ea0576040519150601f19603f3d011682016040523d82523d6000602084013e610ea5565b606091505b5050905080610ee9576040517f08c379a0000000000000000000000000000000000000000000000000000000008152600401610ee0906131b1565b60405180910390fd5b50505060018081905550565b610f1083838360405180602001604052806000815250611222565b505050565b6000610f1f610c1b565b8210610f60576040517f08c379a0000000000000000000000000000000000000000000000000000000008152600401610f5790613371565b60405180910390fd5b600a8281548110610f7457610f736137ba565b5b90600052602060002001549050919050565b60105481565b6000601260003373ffffffffffffffffffffffffffffffffffffffff1673ffffffffffffffffffffffffffffffffffffffff16815260200190815260200160002054905090565b6000806004600084815260200190815260200160002060009054906101000a900473ffffffffffffffffffffffffffffffffffffffff169050600073ffffffffffffffffffffffffffffffffffffffff168173ffffffffffffffffffffffffffffffffffffffff16141561107c576040517f08c379a0000000000000000000000000000000000000000000000000000000008152600401611073906132f1565b60405180910390fd5b80915050919050565b60008073ffffffffffffffffffffffffffffffffffffffff168273ffffffffffffffffffffffffffffffffffffffff1614156110f6576040517f08c379a00000000000000000000000000000000000000000000000000000000081526004016110ed90613211565b60405180910390fd5b600560008373ffffffffffffffffffffffffffffffffffffffff1673ffffffffffffffffffffffffffffffffffffffff168152602001908152602001600020549050919050565b611145611754565b61114f6000611ace565b565b60008060009054906101000a900473ffffffffffffffffffffffffffffffffffffffff16905090565b60606003805461118990613621565b80601f01602080910402602001604051908101604052809291908181526020018280546111b590613621565b80156112025780601f106111d757610100808354040283529160200191611202565b820191906000526020600020905b8154815290600101906020018083116111e557829003601f168201915b5050505050905090565b61121e61121761158d565b8383611b92565b5050565b61123361122d61158d565b836117d2565b611272576040517f08c379a000000000000000000000000000000000000000000000000000000000815260040161126990613391565b60405180910390fd5b61127e84848484611cff565b50505050565b60006001611292600c61164e565b61129c9190613537565b905090565b60606112ac82611d5b565b6112eb576040517f08c379a00000000000000000000000000000000000000000000000000000000081526004016112e2906132b1565b60405180910390fd5b60006112f5611dc7565b905060008151116113155760405180602001604052806000815250611340565b8061131f84611e59565b604051602001611330929190612feb565b6040516020818303038152906040525b915050919050565b6000600760008473ffffffffffffffffffffffffffffffffffffffff1673ffffffffffffffffffffffffffffffffffffffff16815260200190815260200160002060008373ffffffffffffffffffffffffffffffffffffffff1673ffffffffffffffffffffffffffffffffffffffff16815260200190815260200160002060009054906101000a900460ff16905092915050565b6113e4611754565b600073ffffffffffffffffffffffffffffffffffffffff168173ffffffffffffffffffffffffffffffffffffffff161415611454576040517f08c379a000000000000000000000000000000000000000000000000000000000815260040161144b90613151565b60405180910390fd5b61145d81611ace565b50565b60007f80ac58cd000000000000000000000000000000000000000000000000000000007bffffffffffffffffffffffffffffffffffffffffffffffffffffffff1916827bffffffffffffffffffffffffffffffffffffffffffffffffffffffff1916148061152b57507f5b5e139f000000000000000000000000000000000000000000000000000000007bffffffffffffffffffffffffffffffffffffffffffffffffffffffff1916827bffffffffffffffffffffffffffffffffffffffffffffffffffffffff1916145b8061153b575061153a82611fba565b5b9050919050565b61154b81611d5b565b61158a576040517f08c379a0000000000000000000000000000000000000000000000000000000008152600401611581906132f1565b60405180910390fd5b50565b600033905090565b816006600083815260200190815260200160002060006101000a81548173ffffffffffffffffffffffffffffffffffffffff021916908373ffffffffffffffffffffffffffffffffffffffff160217905550808273ffffffffffffffffffffffffffffffffffffffff1661160883610fd3565b73ffffffffffffffffffffffffffffffffffffffff167f8c5be1e5ebec7d5bd14f71427d1e84f3dd0314c0f7b2291e5b200ac8c7c3b92560405160405180910390a45050565b600081600001549050919050565b6001816000016000828254019250508190555050565b61170c83838360405160240161168a939291906130d3565b6040516020818303038152906040527fe3849f79000000000000000000000000000000000000000000000000000000007bffffffffffffffffffffffffffffffffffffffffffffffffffffffff19166020820180517bffffffffffffffffffffffffffffffffffffffffffffffffffffffff8381831617835250505050612024565b505050565b61172b82826040518060200160405280600081525061204d565b5050565b600061173b600c61164e565b90506117473382611711565b611751600c61165c565b50565b61175c61158d565b73ffffffffffffffffffffffffffffffffffffffff1661177a611151565b73ffffffffffffffffffffffffffffffffffffffff16146117d0576040517f08c379a00000000000000000000000000000000000000000000000000000000081526004016117c790613291565b60405180910390fd5b565b6000806117de83610fd3565b90508073ffffffffffffffffffffffffffffffffffffffff168473ffffffffffffffffffffffffffffffffffffffff161480611820575061181f8185611348565b5b8061185e57508373ffffffffffffffffffffffffffffffffffffffff16611846846107a9565b73ffffffffffffffffffffffffffffffffffffffff16145b91505092915050565b8273ffffffffffffffffffffffffffffffffffffffff1661188782610fd3565b73ffffffffffffffffffffffffffffffffffffffff16146118dd576040517f08c379a00000000000000000000000000000000000000000000000000000000081526004016118d490613171565b60405180910390fd5b600073ffffffffffffffffffffffffffffffffffffffff168273ffffffffffffffffffffffffffffffffffffffff16141561194d576040517f08c379a0000000000000000000000000000000000000000000000000000000008152600401611944906131d1565b60405180910390fd5b6119588383836120a8565b611963600082611595565b6001600560008573ffffffffffffffffffffffffffffffffffffffff1673ffffffffffffffffffffffffffffffffffffffff16815260200190815260200160002060008282546119b39190613537565b925050819055506001600560008473ffffffffffffffffffffffffffffffffffffffff1673ffffffffffffffffffffffffffffffffffffffff1681526020019081526020016000206000828254611a0a91906134b0565b92505081905550816004600083815260200190815260200160002060006101000a81548173ffffffffffffffffffffffffffffffffffffffff021916908373ffffffffffffffffffffffffffffffffffffffff160217905550808273ffffffffffffffffffffffffffffffffffffffff168473ffffffffffffffffffffffffffffffffffffffff167fddf252ad1be2c89b69c2b068fc378daa952ba7f163c4a11628f55a4df523b3ef60405160405180910390a4611ac98383836121bc565b505050565b60008060009054906101000a900473ffffffffffffffffffffffffffffffffffffffff169050816000806101000a81548173ffffffffffffffffffffffffffffffffffffffff021916908373ffffffffffffffffffffffffffffffffffffffff1602179055508173ffffffffffffffffffffffffffffffffffffffff168173ffffffffffffffffffffffffffffffffffffffff167f8be0079c531659141344cd1fd0a4f28419497f9722a3daafe3b4186f6b6457e060405160405180910390a35050565b8173ffffffffffffffffffffffffffffffffffffffff168373ffffffffffffffffffffffffffffffffffffffff161415611c01576040517f08c379a0000000000000000000000000000000000000000000000000000000008152600401611bf8906131f1565b60405180910390fd5b80600760008573ffffffffffffffffffffffffffffffffffffffff1673ffffffffffffffffffffffffffffffffffffffff16815260200190815260200160002060008473ffffffffffffffffffffffffffffffffffffffff1673ffffffffffffffffffffffffffffffffffffffff16815260200190815260200160002060006101000a81548160ff0219169083151502179055508173ffffffffffffffffffffffffffffffffffffffff168373ffffffffffffffffffffffffffffffffffffffff167f17307eab39ab6107e8899845ad3d59bd9653f200f220920489ca2b5937696c3183604051611cf29190613096565b60405180910390a3505050565b611d0a848484611867565b611d16848484846121c1565b611d55576040517f08c379a0000000000000000000000000000000000000000000000000000000008152600401611d4c90613131565b60405180910390fd5b50505050565b60008073ffffffffffffffffffffffffffffffffffffffff166004600084815260200190815260200160002060009054906101000a900473ffffffffffffffffffffffffffffffffffffffff1673ffffffffffffffffffffffffffffffffffffffff1614159050919050565b6060600d8054611dd690613621565b80601f0160208091040260200160405190810160405280929190818152602001828054611e0290613621565b8015611e4f5780601f10611e2457610100808354040283529160200191611e4f565b820191906000526020600020905b815481529060010190602001808311611e3257829003601f168201915b5050505050905090565b60606000821415611ea1576040518060400160405280600181526020017f30000000000000000000000000000000000000000000000000000000000000008152509050611fb5565b600082905060005b60008214611ed3578080611ebc90613684565b915050600a82611ecc9190613506565b9150611ea9565b60008167ffffffffffffffff811115611eef57611eee6137e9565b5b6040519080825280601f01601f191660200182016040528015611f215781602001600182028036833780820191505090505b5090505b60008514611fae57600182611f3a9190613537565b9150600a85611f4991906136cd565b6030611f5591906134b0565b60f81b818381518110611f6b57611f6a6137ba565b5b60200101907effffffffffffffffffffffffffffffffffffffffffffffffffffffffffffff1916908160001a905350600a85611fa79190613506565b9450611f25565b8093505050505b919050565b60007f01ffc9a7000000000000000000000000000000000000000000000000000000007bffffffffffffffffffffffffffffffffffffffffffffffffffffffff1916827bffffffffffffffffffffffffffffffffffffffffffffffffffffffff1916149050919050565b60008151905060006a636f6e736f6c652e6c6f679050602083016000808483855afa5050505050565b6120578383612358565b61206460008484846121c1565b6120a3576040517f08c379a000000000000000000000000000000000000000000000000000000000815260040161209a90613131565b60405180910390fd5b505050565b6120b3838383612532565b600073ffffffffffffffffffffffffffffffffffffffff168373ffffffffffffffffffffffffffffffffffffffff1614156120f6576120f181612537565b612135565b8173ffffffffffffffffffffffffffffffffffffffff168373ffffffffffffffffffffffffffffffffffffffff1614612134576121338382612580565b5b5b600073ffffffffffffffffffffffffffffffffffffffff168273ffffffffffffffffffffffffffffffffffffffff16141561217857612173816126ed565b6121b7565b8273ffffffffffffffffffffffffffffffffffffffff168273ffffffffffffffffffffffffffffffffffffffff16146121b6576121b582826127be565b5b5b505050565b505050565b60006121e28473ffffffffffffffffffffffffffffffffffffffff1661283d565b1561234b578373ffffffffffffffffffffffffffffffffffffffff1663150b7a0261220b61158d565b8786866040518563ffffffff1660e01b815260040161222d949392919061304a565b602060405180830381600087803b15801561224757600080fd5b505af192505050801561227857506040513d601f19601f820116820180604052508101906122759190612b56565b60015b6122fb573d80600081146122a8576040519150601f19603f3d011682016040523d82523d6000602084013e6122ad565b606091505b506000815114156122f3576040517f08c379a00000000000000000000000000000000000000000000000000000000081526004016122ea90613131565b60405180910390fd5b805181602001fd5b63150b7a0260e01b7bffffffffffffffffffffffffffffffffffffffffffffffffffffffff1916817bffffffffffffffffffffffffffffffffffffffffffffffffffffffff191614915050612350565b600190505b949350505050565b600073ffffffffffffffffffffffffffffffffffffffff168273ffffffffffffffffffffffffffffffffffffffff1614156123c8576040517f08c379a00000000000000000000000000000000000000000000000000000000081526004016123bf90613271565b60405180910390fd5b6123d181611d5b565b15612411576040517f08c379a000000000000000000000000000000000000000000000000000000000815260040161240890613191565b60405180910390fd5b61241d600083836120a8565b6001600560008473ffffffffffffffffffffffffffffffffffffffff1673ffffffffffffffffffffffffffffffffffffffff168152602001908152602001600020600082825461246d91906134b0565b92505081905550816004600083815260200190815260200160002060006101000a81548173ffffffffffffffffffffffffffffffffffffffff021916908373ffffffffffffffffffffffffffffffffffffffff160217905550808273ffffffffffffffffffffffffffffffffffffffff16600073ffffffffffffffffffffffffffffffffffffffff167fddf252ad1be2c89b69c2b068fc378daa952ba7f163c4a11628f55a4df523b3ef60405160405180910390a461252e600083836121bc565b5050565b505050565b600a80549050600b600083815260200190815260200160002081905550600a81908060018154018082558091505060019003906000526020600020016000909190919091505550565b6000600161258d84611085565b6125979190613537565b905060006009600084815260200190815260200160002054905081811461267c576000600860008673ffffffffffffffffffffffffffffffffffffffff1673ffffffffffffffffffffffffffffffffffffffff168152602001908152602001600020600084815260200190815260200160002054905080600860008773ffffffffffffffffffffffffffffffffffffffff1673ffffffffffffffffffffffffffffffffffffffff168152602001908152602001600020600084815260200190815260200160002081905550816009600083815260200190815260200160002081905550505b6009600084815260200190815260200160002060009055600860008573ffffffffffffffffffffffffffffffffffffffff1673ffffffffffffffffffffffffffffffffffffffff16815260200190815260200160002060008381526020019081526020016000206000905550505050565b60006001600a805490506127019190613537565b90506000600b60008481526020019081526020016000205490506000600a8381548110612731576127306137ba565b5b9060005260206000200154905080600a8381548110612753576127526137ba565b5b906000526020600020018190555081600b600083815260200190815260200160002081905550600b600085815260200190815260200160002060009055600a8054806127a2576127a161378b565b5b6001900381819060005260206000200160009055905550505050565b60006127c983611085565b905081600860008573ffffffffffffffffffffffffffffffffffffffff1673ffffffffffffffffffffffffffffffffffffffff168152602001908152602001600020600083815260200190815260200160002081905550806009600084815260200190815260200160002081905550505050565b6000808273ffffffffffffffffffffffffffffffffffffffff163b119050919050565b600061287361286e84613431565b61340c565b90508281526020810184848401111561288f5761288e61381d565b5b61289a8482856135df565b509392505050565b6000813590506128b181613de0565b92915050565b6000813590506128c681613df7565b92915050565b6000813590506128db81613e0e565b92915050565b6000815190506128f081613e0e565b92915050565b600082601f83011261290b5761290a613818565b5b813561291b848260208601612860565b91505092915050565b60008135905061293381613e25565b92915050565b60006020828403121561294f5761294e613827565b5b600061295d848285016128a2565b91505092915050565b6000806040838503121561297d5761297c613827565b5b600061298b858286016128a2565b925050602061299c858286016128a2565b9150509250929050565b6000806000606084860312156129bf576129be613827565b5b60006129cd868287016128a2565b93505060206129de868287016128a2565b92505060406129ef86828701612924565b9150509250925092565b60008060008060808587031215612a1357612a12613827565b5b6000612a21878288016128a2565b9450506020612a32878288016128a2565b9350506040612a4387828801612924565b925050606085013567ffffffffffffffff811115612a6457612a63613822565b5b612a70878288016128f6565b91505092959194509250565b60008060408385031215612a9357612a92613827565b5b6000612aa1858286016128a2565b9250506020612ab2858286016128b7565b9150509250929050565b60008060408385031215612ad357612ad2613827565b5b6000612ae1858286016128a2565b9250506020612af285828601612924565b9150509250929050565b600060208284031215612b1257612b11613827565b5b6000612b20848285016128b7565b91505092915050565b600060208284031215612b3f57612b3e613827565b5b6000612b4d848285016128cc565b91505092915050565b600060208284031215612b6c57612b6b613827565b5b6000612b7a848285016128e1565b91505092915050565b600060208284031215612b9957612b98613827565b5b6000612ba784828501612924565b91505092915050565b612bb98161356b565b82525050565b612bc88161357d565b82525050565b6000612bd982613462565b612be38185613478565b9350612bf38185602086016135ee565b612bfc8161382c565b840191505092915050565b6000612c128261346d565b612c1c8185613494565b9350612c2c8185602086016135ee565b612c358161382c565b840191505092915050565b6000612c4b8261346d565b612c5581856134a5565b9350612c658185602086016135ee565b80840191505092915050565b6000612c7e602b83613494565b9150612c898261383d565b604082019050919050565b6000612ca1603283613494565b9150612cac8261388c565b604082019050919050565b6000612cc4602683613494565b9150612ccf826138db565b604082019050919050565b6000612ce7602583613494565b9150612cf28261392a565b604082019050919050565b6000612d0a601c83613494565b9150612d1582613979565b602082019050919050565b6000612d2d601483613494565b9150612d38826139a2565b602082019050919050565b6000612d50602483613494565b9150612d5b826139cb565b604082019050919050565b6000612d73601983613494565b9150612d7e82613a1a565b602082019050919050565b6000612d96602983613494565b9150612da182613a43565b604082019050919050565b6000612db9600f83613494565b9150612dc482613a92565b602082019050919050565b6000612ddc603e83613494565b9150612de782613abb565b604082019050919050565b6000612dff602083613494565b9150612e0a82613b0a565b602082019050919050565b6000612e226005836134a5565b9150612e2d82613b33565b600582019050919050565b6000612e45602083613494565b9150612e5082613b5c565b602082019050919050565b6000612e68602f83613494565b9150612e7382613b85565b604082019050919050565b6000612e8b601983613494565b9150612e9682613bd4565b602082019050919050565b6000612eae601883613494565b9150612eb982613bfd565b602082019050919050565b6000612ed1602183613494565b9150612edc82613c26565b604082019050919050565b6000612ef4601983613494565b9150612eff82613c75565b602082019050919050565b6000612f17600083613489565b9150612f2282613c9e565b600082019050919050565b6000612f3a601983613494565b9150612f4582613ca1565b602082019050919050565b6000612f5d602c83613494565b9150612f6882613cca565b604082019050919050565b6000612f80602e83613494565b9150612f8b82613d19565b604082019050919050565b6000612fa3601f83613494565b9150612fae82613d68565b602082019050919050565b6000612fc6602383613494565b9150612fd182613d91565b604082019050919050565b612fe5816135d5565b82525050565b6000612ff78285612c40565b91506130038284612c40565b915061300e82612e15565b91508190509392505050565b600061302582612f0a565b9150819050919050565b60006020820190506130446000830184612bb0565b92915050565b600060808201905061305f6000830187612bb0565b61306c6020830186612bb0565b6130796040830185612fdc565b818103606083015261308b8184612bce565b905095945050505050565b60006020820190506130ab6000830184612bbf565b92915050565b600060208201905081810360008301526130cb8184612c07565b905092915050565b600060608201905081810360008301526130ed8186612c07565b90506130fc6020830185612fdc565b6131096040830184612bb0565b949350505050565b6000602082019050818103600083015261312a81612c71565b9050919050565b6000602082019050818103600083015261314a81612c94565b9050919050565b6000602082019050818103600083015261316a81612cb7565b9050919050565b6000602082019050818103600083015261318a81612cda565b9050919050565b600060208201905081810360008301526131aa81612cfd565b9050919050565b600060208201905081810360008301526131ca81612d20565b9050919050565b600060208201905081810360008301526131ea81612d43565b9050919050565b6000602082019050818103600083015261320a81612d66565b9050919050565b6000602082019050818103600083015261322a81612d89565b9050919050565b6000602082019050818103600083015261324a81612dac565b9050919050565b6000602082019050818103600083015261326a81612dcf565b9050919050565b6000602082019050818103600083015261328a81612df2565b9050919050565b600060208201905081810360008301526132aa81612e38565b9050919050565b600060208201905081810360008301526132ca81612e5b565b9050919050565b600060208201905081810360008301526132ea81612e7e565b9050919050565b6000602082019050818103600083015261330a81612ea1565b9050919050565b6000602082019050818103600083015261332a81612ec4565b9050919050565b6000602082019050818103600083015261334a81612ee7565b9050919050565b6000602082019050818103600083015261336a81612f2d565b9050919050565b6000602082019050818103600083015261338a81612f50565b9050919050565b600060208201905081810360008301526133aa81612f73565b9050919050565b600060208201905081810360008301526133ca81612f96565b9050919050565b600060208201905081810360008301526133ea81612fb9565b9050919050565b60006020820190506134066000830184612fdc565b92915050565b6000613416613427565b90506134228282613653565b919050565b6000604051905090565b600067ffffffffffffffff82111561344c5761344b6137e9565b5b6134558261382c565b9050602081019050919050565b600081519050919050565b600081519050919050565b600082825260208201905092915050565b600081905092915050565b600082825260208201905092915050565b600081905092915050565b60006134bb826135d5565b91506134c6836135d5565b9250827fffffffffffffffffffffffffffffffffffffffffffffffffffffffffffffffff038211156134fb576134fa6136fe565b5b828201905092915050565b6000613511826135d5565b915061351c836135d5565b92508261352c5761352b61372d565b5b828204905092915050565b6000613542826135d5565b915061354d836135d5565b9250828210156135605761355f6136fe565b5b828203905092915050565b6000613576826135b5565b9050919050565b60008115159050919050565b60007fffffffff0000000000000000000000000000000000000000000000000000000082169050919050565b600073ffffffffffffffffffffffffffffffffffffffff82169050919050565b6000819050919050565b82818337600083830152505050565b60005b8381101561360c5780820151818401526020810190506135f1565b8381111561361b576000848401525b50505050565b6000600282049050600182168061363957607f821691505b6020821081141561364d5761364c61375c565b5b50919050565b61365c8261382c565b810181811067ffffffffffffffff8211171561367b5761367a6137e9565b5b80604052505050565b600061368f826135d5565b91507fffffffffffffffffffffffffffffffffffffffffffffffffffffffffffffffff8214156136c2576136c16136fe565b5b600182019050919050565b60006136d8826135d5565b91506136e3836135d5565b9250826136f3576136f261372d565b5b828206905092915050565b7f4e487b7100000000000000000000000000000000000000000000000000000000600052601160045260246000fd5b7f4e487b7100000000000000000000000000000000000000000000000000000000600052601260045260246000fd5b7f4e487b7100000000000000000000000000000000000000000000000000000000600052602260045260246000fd5b7f4e487b7100000000000000000000000000000000000000000000000000000000600052603160045260246000fd5b7f4e487b7100000000000000000000000000000000000000000000000000000000600052603260045260246000fd5b7f4e487b7100000000000000000000000000000000000000000000000000000000600052604160045260246000fd5b600080fd5b600080fd5b600080fd5b600080fd5b6000601f19601f8301169050919050565b7f455243373231456e756d657261626c653a206f776e657220696e646578206f7560008201527f74206f6620626f756e6473000000000000000000000000000000000000000000602082015250565b7f4552433732313a207472616e7366657220746f206e6f6e20455243373231526560008201527f63656976657220696d706c656d656e7465720000000000000000000000000000602082015250565b7f4f776e61626c653a206e6577206f776e657220697320746865207a65726f206160008201527f6464726573730000000000000000000000000000000000000000000000000000602082015250565b7f4552433732313a207472616e736665722066726f6d20696e636f72726563742060008201527f6f776e6572000000000000000000000000000000000000000000000000000000602082015250565b7f4552433732313a20746f6b656e20616c7265616479206d696e74656400000000600082015250565b7f4661696c656420746f2073656e64204574686572000000000000000000000000600082015250565b7f4552433732313a207472616e7366657220746f20746865207a65726f2061646460008201527f7265737300000000000000000000000000000000000000000000000000000000602082015250565b7f4552433732313a20617070726f766520746f2063616c6c657200000000000000600082015250565b7f4552433732313a2061646472657373207a65726f206973206e6f74206120766160008201527f6c6964206f776e65720000000000000000000000000000000000000000000000602082015250565b7f4e6f7420656e6f756768204e4654730000000000000000000000000000000000600082015250565b7f4552433732313a20617070726f76652063616c6c6572206973206e6f7420746f60008201527f6b656e206f776e6572206e6f7220617070726f76656420666f7220616c6c0000602082015250565b7f4552433732313a206d696e7420746f20746865207a65726f2061646472657373600082015250565b7f2e6a736f6e000000000000000000000000000000000000000000000000000000600082015250565b7f4f776e61626c653a2063616c6c6572206973206e6f7420746865206f776e6572600082015250565b7f4552433732314d657461646174613a2055524920717565727920666f72206e6f60008201527f6e6578697374656e7420746f6b656e0000000000000000000000000000000000602082015250565b7f436f6e74726163742063757272656e746c792070617573656400000000000000600082015250565b7f4552433732313a20696e76616c696420746f6b656e2049440000000000000000600082015250565b7f4552433732313a20617070726f76616c20746f2063757272656e74206f776e6560008201527f7200000000000000000000000000000000000000000000000000000000000000602082015250565b7f45746865722073656e74206973206e6f7420636f727265637400000000000000600082015250565b50565b7f457863656564206d6178696d756d2054415720737570706c7900000000000000600082015250565b7f455243373231456e756d657261626c653a20676c6f62616c20696e646578206f60008201527f7574206f6620626f756e64730000000000000000000000000000000000000000602082015250565b7f4552433732313a2063616c6c6572206973206e6f7420746f6b656e206f776e6560008201527f72206e6f7220617070726f766564000000000000000000000000000000000000602082015250565b7f5265656e7472616e637947756172643a207265656e7472616e742063616c6c00600082015250565b7f4f6e6c79204f776e65722043616e2041636365737320546869732046756e637460008201527f696f6e0000000000000000000000000000000000000000000000000000000000602082015250565b613de98161356b565b8114613df457600080fd5b50565b613e008161357d565b8114613e0b57600080fd5b50565b613e1781613589565b8114613e2257600080fd5b50565b613e2e816135d5565b8114613e3957600080fd5b5056fe416e204e465420772f20494420257320686173206265656e206d696e74656420746f202573a2646970667358221220f2334caec42024a5a6f0ad89135fa971cb18f98a99c162539659ebb34557f90364736f6c63430008060033",
  "linkReferences": {},
  "deployedLinkReferences": {}
}