{
  "_format": "hh-sol-artifact-1",
  "contractName": "TAW",
  "sourceName": "contracts/TAW2.sol",
  "abi": [
    {
      "inputs": [
        {
          "internalType": "string",
          "name": "baseURI",
          "type": "string"
        }
      ],
      "stateMutability": "nonpayable",
      "type": "constructor"
    },
    {
      "inputs": [],
      "name": "ApprovalCallerNotOwnerNorApproved",
      "type": "error"
    },
    {
      "inputs": [],
      "name": "ApprovalQueryForNonexistentToken",
      "type": "error"
    },
    {
      "inputs": [],
      "name": "ApproveToCaller",
      "type": "error"
    },
    {
      "inputs": [],
      "name": "BalanceQueryForZeroAddress",
      "type": "error"
    },
    {
      "inputs": [],
      "name": "MintERC2309QuantityExceedsLimit",
      "type": "error"
    },
    {
      "inputs": [],
      "name": "MintToZeroAddress",
      "type": "error"
    },
    {
      "inputs": [],
      "name": "MintZeroQuantity",
      "type": "error"
    },
    {
      "inputs": [],
      "name": "OwnerQueryForNonexistentToken",
      "type": "error"
    },
    {
      "inputs": [],
      "name": "OwnershipNotInitializedForExtraData",
      "type": "error"
    },
    {
      "inputs": [],
      "name": "TransferCallerNotOwnerNorApproved",
      "type": "error"
    },
    {
      "inputs": [],
      "name": "TransferFromIncorrectOwner",
      "type": "error"
    },
    {
      "inputs": [],
      "name": "TransferToNonERC721ReceiverImplementer",
      "type": "error"
    },
    {
      "inputs": [],
      "name": "TransferToZeroAddress",
      "type": "error"
    },
    {
      "inputs": [],
      "name": "URIQueryForNonexistentToken",
      "type": "error"
    },
    {
      "anonymous": false,
      "inputs": [
        {
          "indexed": true,
          "internalType": "address",
          "name": "owner",
          "type": "address"
        },
        {
          "indexed": true,
          "internalType": "address",
          "name": "approved",
          "type": "address"
        },
        {
          "indexed": true,
          "internalType": "uint256",
          "name": "tokenId",
          "type": "uint256"
        }
      ],
      "name": "Approval",
      "type": "event"
    },
    {
      "anonymous": false,
      "inputs": [
        {
          "indexed": true,
          "internalType": "address",
          "name": "owner",
          "type": "address"
        },
        {
          "indexed": true,
          "internalType": "address",
          "name": "operator",
          "type": "address"
        },
        {
          "indexed": false,
          "internalType": "bool",
          "name": "approved",
          "type": "bool"
        }
      ],
      "name": "ApprovalForAll",
      "type": "event"
    },
    {
      "anonymous": false,
      "inputs": [
        {
          "indexed": true,
          "internalType": "uint256",
          "name": "fromTokenId",
          "type": "uint256"
        },
        {
          "indexed": false,
          "internalType": "uint256",
          "name": "toTokenId",
          "type": "uint256"
        },
        {
          "indexed": true,
          "internalType": "address",
          "name": "from",
          "type": "address"
        },
        {
          "indexed": true,
          "internalType": "address",
          "name": "to",
          "type": "address"
        }
      ],
      "name": "ConsecutiveTransfer",
      "type": "event"
    },
    {
      "anonymous": false,
      "inputs": [
        {
          "indexed": true,
          "internalType": "address",
          "name": "previousOwner",
          "type": "address"
        },
        {
          "indexed": true,
          "internalType": "address",
          "name": "newOwner",
          "type": "address"
        }
      ],
      "name": "OwnershipTransferred",
      "type": "event"
    },
    {
      "anonymous": false,
      "inputs": [
        {
          "indexed": true,
          "internalType": "address",
          "name": "from",
          "type": "address"
        },
        {
          "indexed": true,
          "internalType": "address",
          "name": "to",
          "type": "address"
        },
        {
          "indexed": true,
          "internalType": "uint256",
          "name": "tokenId",
          "type": "uint256"
        }
      ],
      "name": "Transfer",
      "type": "event"
    },
    {
      "stateMutability": "payable",
      "type": "fallback"
    },
    {
      "inputs": [],
      "name": "_paused",
      "outputs": [
        {
          "internalType": "bool",
          "name": "",
          "type": "bool"
        }
      ],
      "stateMutability": "view",
      "type": "function"
    },
    {
      "inputs": [],
      "name": "_price",
      "outputs": [
        {
          "internalType": "uint256",
          "name": "",
          "type": "uint256"
        }
      ],
      "stateMutability": "view",
      "type": "function"
    },
    {
      "inputs": [
        {
          "internalType": "address",
          "name": "to",
          "type": "address"
        },
        {
          "internalType": "uint256",
          "name": "tokenId",
          "type": "uint256"
        }
      ],
      "name": "approve",
      "outputs": [],
      "stateMutability": "nonpayable",
      "type": "function"
    },
    {
      "inputs": [
        {
          "internalType": "address",
          "name": "owner",
          "type": "address"
        }
      ],
      "name": "balanceOf",
      "outputs": [
        {
          "internalType": "uint256",
          "name": "",
          "type": "uint256"
        }
      ],
      "stateMutability": "view",
      "type": "function"
    },
    {
      "inputs": [
        {
          "internalType": "uint256",
          "name": "tokenId",
          "type": "uint256"
        }
      ],
      "name": "getApproved",
      "outputs": [
        {
          "internalType": "address",
          "name": "",
          "type": "address"
        }
      ],
      "stateMutability": "view",
      "type": "function"
    },
    {
      "inputs": [],
      "name": "getMintedIds",
      "outputs": [
        {
          "internalType": "uint256",
          "name": "",
          "type": "uint256"
        }
      ],
      "stateMutability": "view",
      "type": "function"
    },
    {
      "inputs": [
        {
          "internalType": "address",
          "name": "owner",
          "type": "address"
        },
        {
          "internalType": "address",
          "name": "operator",
          "type": "address"
        }
      ],
      "name": "isApprovedForAll",
      "outputs": [
        {
          "internalType": "bool",
          "name": "",
          "type": "bool"
        }
      ],
      "stateMutability": "view",
      "type": "function"
    },
    {
      "inputs": [],
      "name": "maxSupply",
      "outputs": [
        {
          "internalType": "uint256",
          "name": "",
          "type": "uint256"
        }
      ],
      "stateMutability": "view",
      "type": "function"
    },
    {
      "inputs": [
        {
          "internalType": "uint256",
          "name": "quantity",
          "type": "uint256"
        }
      ],
      "name": "mint",
      "outputs": [],
      "stateMutability": "payable",
      "type": "function"
    },
    {
      "inputs": [],
      "name": "name",
      "outputs": [
        {
          "internalType": "string",
          "name": "",
          "type": "string"
        }
      ],
      "stateMutability": "view",
      "type": "function"
    },
    {
      "inputs": [],
      "name": "owner",
      "outputs": [
        {
          "internalType": "address",
          "name": "",
          "type": "address"
        }
      ],
      "stateMutability": "view",
      "type": "function"
    },
    {
      "inputs": [
        {
          "internalType": "uint256",
          "name": "tokenId",
          "type": "uint256"
        }
      ],
      "name": "ownerOf",
      "outputs": [
        {
          "internalType": "address",
          "name": "",
          "type": "address"
        }
      ],
      "stateMutability": "view",
      "type": "function"
    },
    {
      "inputs": [],
      "name": "renounceOwnership",
      "outputs": [],
      "stateMutability": "nonpayable",
      "type": "function"
    },
    {
      "inputs": [],
      "name": "reserveNFTs",
      "outputs": [],
      "stateMutability": "nonpayable",
      "type": "function"
    },
    {
      "inputs": [
        {
          "internalType": "address",
          "name": "from",
          "type": "address"
        },
        {
          "internalType": "address",
          "name": "to",
          "type": "address"
        },
        {
          "internalType": "uint256",
          "name": "tokenId",
          "type": "uint256"
        }
      ],
      "name": "safeTransferFrom",
      "outputs": [],
      "stateMutability": "nonpayable",
      "type": "function"
    },
    {
      "inputs": [
        {
          "internalType": "address",
          "name": "from",
          "type": "address"
        },
        {
          "internalType": "address",
          "name": "to",
          "type": "address"
        },
        {
          "internalType": "uint256",
          "name": "tokenId",
          "type": "uint256"
        },
        {
          "internalType": "bytes",
          "name": "_data",
          "type": "bytes"
        }
      ],
      "name": "safeTransferFrom",
      "outputs": [],
      "stateMutability": "nonpayable",
      "type": "function"
    },
    {
      "inputs": [
        {
          "internalType": "address",
          "name": "operator",
          "type": "address"
        },
        {
          "internalType": "bool",
          "name": "approved",
          "type": "bool"
        }
      ],
      "name": "setApprovalForAll",
      "outputs": [],
      "stateMutability": "nonpayable",
      "type": "function"
    },
    {
      "inputs": [
        {
          "internalType": "bool",
          "name": "val",
          "type": "bool"
        }
      ],
      "name": "setPaused",
      "outputs": [],
      "stateMutability": "nonpayable",
      "type": "function"
    },
    {
      "inputs": [
        {
          "internalType": "bytes4",
          "name": "interfaceId",
          "type": "bytes4"
        }
      ],
      "name": "supportsInterface",
      "outputs": [
        {
          "internalType": "bool",
          "name": "",
          "type": "bool"
        }
      ],
      "stateMutability": "view",
      "type": "function"
    },
    {
      "inputs": [],
      "name": "symbol",
      "outputs": [
        {
          "internalType": "string",
          "name": "",
          "type": "string"
        }
      ],
      "stateMutability": "view",
      "type": "function"
    },
    {
      "inputs": [
        {
          "internalType": "uint256",
          "name": "tokenId",
          "type": "uint256"
        }
      ],
      "name": "tokenURI",
      "outputs": [
        {
          "internalType": "string",
          "name": "",
          "type": "string"
        }
      ],
      "stateMutability": "view",
      "type": "function"
    },
    {
      "inputs": [],
      "name": "totalSupply",
      "outputs": [
        {
          "internalType": "uint256",
          "name": "",
          "type": "uint256"
        }
      ],
      "stateMutability": "view",
      "type": "function"
    },
    {
      "inputs": [
        {
          "internalType": "address",
          "name": "from",
          "type": "address"
        },
        {
          "internalType": "address",
          "name": "to",
          "type": "address"
        },
        {
          "internalType": "uint256",
          "name": "tokenId",
          "type": "uint256"
        }
      ],
      "name": "transferFrom",
      "outputs": [],
      "stateMutability": "nonpayable",
      "type": "function"
    },
    {
      "inputs": [
        {
          "internalType": "address",
          "name": "newOwner",
          "type": "address"
        }
      ],
      "name": "transferOwnership",
      "outputs": [],
      "stateMutability": "nonpayable",
      "type": "function"
    },
    {
      "inputs": [],
      "name": "viewNFT",
      "outputs": [
        {
          "internalType": "uint256",
          "name": "",
          "type": "uint256"
        }
      ],
      "stateMutability": "view",
      "type": "function"
    },
    {
      "inputs": [],
      "name": "withdraw",
      "outputs": [],
      "stateMutability": "nonpayable",
      "type": "function"
    },
    {
      "stateMutability": "payable",
      "type": "receive"
    }
  ],
  "bytecode": "0x60806040526001600a55662386f26fc10000600c556115b3600e5573767a246ee829edcf48268695d77ceb49103b8ef3601060006101000a81548173ffffffffffffffffffffffffffffffffffffffff021916908373ffffffffffffffffffffffffffffffffffffffff1602179055503480156200007c57600080fd5b506040516200315b3803806200315b8339818101604052810190620000a29190620003a2565b6040518060400160405280601281526020017f546865204177616b656e656420576f6d616e00000000000000000000000000008152506040518060400160405280600381526020017f54415700000000000000000000000000000000000000000000000000000000008152506200012e620001226200019f60201b60201c565b620001a760201b60201c565b6001808190555081600490805190602001906200014d92919062000274565b5080600590805190602001906200016692919062000274565b50620001776200026b60201b60201c565b600281905550505080600b90805190602001906200019792919062000274565b505062000577565b600033905090565b60008060009054906101000a900473ffffffffffffffffffffffffffffffffffffffff169050816000806101000a81548173ffffffffffffffffffffffffffffffffffffffff021916908373ffffffffffffffffffffffffffffffffffffffff1602179055508173ffffffffffffffffffffffffffffffffffffffff168173ffffffffffffffffffffffffffffffffffffffff167f8be0079c531659141344cd1fd0a4f28419497f9722a3daafe3b4186f6b6457e060405160405180910390a35050565b60006001905090565b828054620002829062000488565b90600052602060002090601f016020900481019282620002a65760008555620002f2565b82601f10620002c157805160ff1916838001178555620002f2565b82800160010185558215620002f2579182015b82811115620002f1578251825591602001919060010190620002d4565b5b50905062000301919062000305565b5090565b5b808211156200032057600081600090555060010162000306565b5090565b60006200033b62000335846200041c565b620003f3565b9050828152602081018484840111156200035a576200035962000557565b5b6200036784828562000452565b509392505050565b600082601f83011262000387576200038662000552565b5b81516200039984826020860162000324565b91505092915050565b600060208284031215620003bb57620003ba62000561565b5b600082015167ffffffffffffffff811115620003dc57620003db6200055c565b5b620003ea848285016200036f565b91505092915050565b6000620003ff62000412565b90506200040d8282620004be565b919050565b6000604051905090565b600067ffffffffffffffff8211156200043a576200043962000523565b5b620004458262000566565b9050602081019050919050565b60005b838110156200047257808201518184015260208101905062000455565b8381111562000482576000848401525b50505050565b60006002820490506001821680620004a157607f821691505b60208210811415620004b857620004b7620004f4565b5b50919050565b620004c98262000566565b810181811067ffffffffffffffff82111715620004eb57620004ea62000523565b5b80604052505050565b7f4e487b7100000000000000000000000000000000000000000000000000000000600052602260045260246000fd5b7f4e487b7100000000000000000000000000000000000000000000000000000000600052604160045260246000fd5b600080fd5b600080fd5b600080fd5b600080fd5b6000601f19601f8301169050919050565b612bd480620005876000396000f3fe6080604052600436106101855760003560e01c80636352211e116100d1578063a0712d681161008a578063c87b56dd11610064578063c87b56dd14610531578063d5abeb011461056e578063e985e9c514610599578063f2fde38b146105d65761018c565b8063a0712d68146104c3578063a22cb465146104df578063b88d4fde146105085761018c565b80636352211e146103b1578063693c6062146103ee57806370a0823114610419578063715018a6146104565780638da5cb5b1461046d57806395d89b41146104985761018c565b806316c61ccc1161013e57806323b872dd1161011857806323b872dd1461031d5780633ccfd60b1461034657806342842e0e1461035d578063609f6428146103865761018c565b806316c61ccc1461029c57806318160ddd146102c7578063235b6ea1146102f25761018c565b806301ffc9a71461018e57806306fdde03146101cb578063081812fc146101f6578063095ea7b314610233578063144100c71461025c57806316c38b3c146102735761018c565b3661018c57005b005b34801561019a57600080fd5b506101b560048036038101906101b09190612162565b6105ff565b6040516101c291906124b7565b60405180910390f35b3480156101d757600080fd5b506101e0610691565b6040516101ed91906124d2565b60405180910390f35b34801561020257600080fd5b5061021d600480360381019061021891906121bc565b610723565b60405161022a9190612450565b60405180910390f35b34801561023f57600080fd5b5061025a600480360381019061025591906120f5565b6107a2565b005b34801561026857600080fd5b506102716108e6565b005b34801561027f57600080fd5b5061029a60048036038101906102959190612135565b610a6b565b005b3480156102a857600080fd5b506102b1610a90565b6040516102be91906124b7565b60405180910390f35b3480156102d357600080fd5b506102dc610aa3565b6040516102e99190612614565b60405180910390f35b3480156102fe57600080fd5b50610307610ab6565b6040516103149190612614565b60405180910390f35b34801561032957600080fd5b50610344600480360381019061033f9190611fdf565b610abc565b005b34801561035257600080fd5b5061035b610de1565b005b34801561036957600080fd5b50610384600480360381019061037f9190611fdf565b610fa3565b005b34801561039257600080fd5b5061039b610fc3565b6040516103a89190612614565b60405180910390f35b3480156103bd57600080fd5b506103d860048036038101906103d391906121bc565b61100a565b6040516103e59190612450565b60405180910390f35b3480156103fa57600080fd5b5061040361101c565b6040516104109190612614565b60405180910390f35b34801561042557600080fd5b50610440600480360381019061043b9190611f72565b61102b565b60405161044d9190612614565b60405180910390f35b34801561046257600080fd5b5061046b6110e4565b005b34801561047957600080fd5b506104826110f8565b60405161048f9190612450565b60405180910390f35b3480156104a457600080fd5b506104ad611121565b6040516104ba91906124d2565b60405180910390f35b6104dd60048036038101906104d891906121bc565b6111b3565b005b3480156104eb57600080fd5b50610506600480360381019061050191906120b5565b611373565b005b34801561051457600080fd5b5061052f600480360381019061052a9190612032565b6114eb565b005b34801561053d57600080fd5b50610558600480360381019061055391906121bc565b61155e565b60405161056591906124d2565b60405180910390f35b34801561057a57600080fd5b506105836115fd565b6040516105909190612614565b60405180910390f35b3480156105a557600080fd5b506105c060048036038101906105bb9190611f9f565b611603565b6040516105cd91906124b7565b60405180910390f35b3480156105e257600080fd5b506105fd60048036038101906105f89190611f72565b611697565b005b60006301ffc9a760e01b827bffffffffffffffffffffffffffffffffffffffffffffffffffffffff1916148061065a57506380ac58cd60e01b827bffffffffffffffffffffffffffffffffffffffffffffffffffffffff1916145b8061068a5750635b5e139f60e01b827bffffffffffffffffffffffffffffffffffffffffffffffffffffffff1916145b9050919050565b6060600480546106a09061286d565b80601f01602080910402602001604051908101604052809291908181526020018280546106cc9061286d565b80156107195780601f106106ee57610100808354040283529160200191610719565b820191906000526020600020905b8154815290600101906020018083116106fc57829003601f168201915b5050505050905090565b600061072e8261171b565b610764576040517fcf4700e400000000000000000000000000000000000000000000000000000000815260040160405180910390fd5b6008600083815260200190815260200160002060000160009054906101000a900473ffffffffffffffffffffffffffffffffffffffff169050919050565b60006107ad8261100a565b90508073ffffffffffffffffffffffffffffffffffffffff166107ce61177a565b73ffffffffffffffffffffffffffffffffffffffff1614610831576107fa816107f561177a565b611603565b610830576040517fcfb3b94200000000000000000000000000000000000000000000000000000000815260040160405180910390fd5b5b826008600084815260200190815260200160002060000160006101000a81548173ffffffffffffffffffffffffffffffffffffffff021916908373ffffffffffffffffffffffffffffffffffffffff160217905550818373ffffffffffffffffffffffffffffffffffffffff168273ffffffffffffffffffffffffffffffffffffffff167f8c5be1e5ebec7d5bd14f71427d1e84f3dd0314c0f7b2291e5b200ac8c7c3b92560405160405180910390a4505050565b601060009054906101000a900473ffffffffffffffffffffffffffffffffffffffff1673ffffffffffffffffffffffffffffffffffffffff163373ffffffffffffffffffffffffffffffffffffffff1614610976576040517f08c379a000000000000000000000000000000000000000000000000000000000815260040161096d906125f4565b60405180910390fd5b600260015414156109bc576040517f08c379a00000000000000000000000000000000000000000000000000000000081526004016109b3906125b4565b60405180910390fd5b60026001819055506064600e546109d39190612783565b6109db610aa3565b10610a1b576040517f08c379a0000000000000000000000000000000000000000000000000000000008152600401610a12906125d4565b60405180910390fd5b610a48601060009054906101000a900473ffffffffffffffffffffffffffffffffffffffff166064611782565b6064600a6000828254610a5b91906126d3565b9250508190555060018081905550565b610a73611940565b80600d60006101000a81548160ff02191690831515021790555050565b600d60009054906101000a900460ff1681565b6000610aad6119be565b600a5403905090565b600c5481565b6000610ac7826119c7565b90508373ffffffffffffffffffffffffffffffffffffffff168173ffffffffffffffffffffffffffffffffffffffff1614610b2e576040517fa114810000000000000000000000000000000000000000000000000000000000815260040160405180910390fd5b600080610b3a84611a95565b91509150610b508187610b4b61177a565b611abc565b610b9c57610b6586610b6061177a565b611603565b610b9b576040517f59c896be00000000000000000000000000000000000000000000000000000000815260040160405180910390fd5b5b600073ffffffffffffffffffffffffffffffffffffffff168573ffffffffffffffffffffffffffffffffffffffff161415610c03576040517fea553b3400000000000000000000000000000000000000000000000000000000815260040160405180910390fd5b610c108686866001611b00565b8015610c1b57600082555b600760008773ffffffffffffffffffffffffffffffffffffffff1673ffffffffffffffffffffffffffffffffffffffff168152602001908152602001600020600081546001900391905081905550600760008673ffffffffffffffffffffffffffffffffffffffff1673ffffffffffffffffffffffffffffffffffffffff1681526020019081526020016000206000815460010191905081905550610ce985610cc5888887611b06565b7c020000000000000000000000000000000000000000000000000000000017611b2e565b600660008681526020019081526020016000208190555060007c020000000000000000000000000000000000000000000000000000000084161415610d71576000600185019050600060066000838152602001908152602001600020541415610d6f576002548114610d6e578360066000838152602001908152602001600020819055505b5b505b838573ffffffffffffffffffffffffffffffffffffffff168773ffffffffffffffffffffffffffffffffffffffff167fddf252ad1be2c89b69c2b068fc378daa952ba7f163c4a11628f55a4df523b3ef60405160405180910390a4610dd98686866001611b59565b505050505050565b601060009054906101000a900473ffffffffffffffffffffffffffffffffffffffff1673ffffffffffffffffffffffffffffffffffffffff163373ffffffffffffffffffffffffffffffffffffffff1614610e71576040517f08c379a0000000000000000000000000000000000000000000000000000000008152600401610e68906125f4565b60405180910390fd5b60026001541415610eb7576040517f08c379a0000000000000000000000000000000000000000000000000000000008152600401610eae906125b4565b60405180910390fd5b60026001819055506000601060009054906101000a900473ffffffffffffffffffffffffffffffffffffffff169050600047905060008273ffffffffffffffffffffffffffffffffffffffff1682604051610f119061243b565b60006040518083038185875af1925050503d8060008114610f4e576040519150601f19603f3d011682016040523d82523d6000602084013e610f53565b606091505b5050905080610f97576040517f08c379a0000000000000000000000000000000000000000000000000000000008152600401610f8e90612514565b60405180910390fd5b50505060018081905550565b610fbe838383604051806020016040528060008152506114eb565b505050565b6000600f60003373ffffffffffffffffffffffffffffffffffffffff1673ffffffffffffffffffffffffffffffffffffffff16815260200190815260200160002054905090565b6000611015826119c7565b9050919050565b6000611026611b5f565b905090565b60008073ffffffffffffffffffffffffffffffffffffffff168273ffffffffffffffffffffffffffffffffffffffff161415611093576040517f8f4eb60400000000000000000000000000000000000000000000000000000000815260040160405180910390fd5b67ffffffffffffffff600760008473ffffffffffffffffffffffffffffffffffffffff1673ffffffffffffffffffffffffffffffffffffffff16815260200190815260200160002054169050919050565b6110ec611940565b6110f66000611b72565b565b60008060009054906101000a900473ffffffffffffffffffffffffffffffffffffffff16905090565b6060600580546111309061286d565b80601f016020809104026020016040519081016040528092919081815260200182805461115c9061286d565b80156111a95780601f1061117e576101008083540402835291602001916111a9565b820191906000526020600020905b81548152906001019060200180831161118c57829003601f168201915b5050505050905090565b600d60009054906101000a900460ff1615611203576040517f08c379a00000000000000000000000000000000000000000000000000000000081526004016111fa90612554565b60405180910390fd5b60026001541415611249576040517f08c379a0000000000000000000000000000000000000000000000000000000008152600401611240906125b4565b60405180910390fd5b60026001819055506000600a549050611260610aa3565b600a54116112a3576040517f08c379a000000000000000000000000000000000000000000000000000000000815260040161129a90612594565b60405180910390fd5b81600c546112b19190612729565b3410156112f3576040517f08c379a00000000000000000000000000000000000000000000000000000000081526004016112ea90612574565b60405180910390fd5b600582111561130157600080fd5b61130b3383611782565b81600a600082825461131d91906126d3565b9250508190555080600f60003373ffffffffffffffffffffffffffffffffffffffff1673ffffffffffffffffffffffffffffffffffffffff16815260200190815260200160002081905550506001808190555050565b61137b61177a565b73ffffffffffffffffffffffffffffffffffffffff168273ffffffffffffffffffffffffffffffffffffffff1614156113e0576040517fb06307db00000000000000000000000000000000000000000000000000000000815260040160405180910390fd5b80600960006113ed61177a565b73ffffffffffffffffffffffffffffffffffffffff1673ffffffffffffffffffffffffffffffffffffffff16815260200190815260200160002060008473ffffffffffffffffffffffffffffffffffffffff1673ffffffffffffffffffffffffffffffffffffffff16815260200190815260200160002060006101000a81548160ff0219169083151502179055508173ffffffffffffffffffffffffffffffffffffffff1661149a61177a565b73ffffffffffffffffffffffffffffffffffffffff167f17307eab39ab6107e8899845ad3d59bd9653f200f220920489ca2b5937696c31836040516114df91906124b7565b60405180910390a35050565b6114f6848484610abc565b60008373ffffffffffffffffffffffffffffffffffffffff163b146115585761152184848484611c36565b611557576040517fd1a57ed600000000000000000000000000000000000000000000000000000000815260040160405180910390fd5b5b50505050565b60606115698261171b565b61159f576040517fa14c4b5000000000000000000000000000000000000000000000000000000000815260040160405180910390fd5b60006115a9611d96565b90506000815114156115ca57604051806020016040528060008152506115f5565b806115d484611e28565b6040516020016115e5929190612417565b6040516020818303038152906040525b915050919050565b600e5481565b6000600960008473ffffffffffffffffffffffffffffffffffffffff1673ffffffffffffffffffffffffffffffffffffffff16815260200190815260200160002060008373ffffffffffffffffffffffffffffffffffffffff1673ffffffffffffffffffffffffffffffffffffffff16815260200190815260200160002060009054906101000a900460ff16905092915050565b61169f611940565b600073ffffffffffffffffffffffffffffffffffffffff168173ffffffffffffffffffffffffffffffffffffffff16141561170f576040517f08c379a0000000000000000000000000000000000000000000000000000000008152600401611706906124f4565b60405180910390fd5b61171881611b72565b50565b6000816117266119be565b11158015611735575060025482105b8015611773575060007c0100000000000000000000000000000000000000000000000000000000600660008581526020019081526020016000205416145b9050919050565b600033905090565b6000600254905060008214156117c4576040517fb562e8dd00000000000000000000000000000000000000000000000000000000815260040160405180910390fd5b6117d16000848385611b00565b600160406001901b178202600760008573ffffffffffffffffffffffffffffffffffffffff1673ffffffffffffffffffffffffffffffffffffffff16815260200190815260200160002060008282540192505081905550611848836118396000866000611b06565b61184285611e78565b17611b2e565b6006600083815260200190815260200160002081905550600080838301905073ffffffffffffffffffffffffffffffffffffffff85169150828260007fddf252ad1be2c89b69c2b068fc378daa952ba7f163c4a11628f55a4df523b3ef600080a4600183015b8181146118e957808360007fddf252ad1be2c89b69c2b068fc378daa952ba7f163c4a11628f55a4df523b3ef600080a46001810190506118ae565b506000821415611925576040517f2e07630000000000000000000000000000000000000000000000000000000000815260040160405180910390fd5b80600281905550505061193b6000848385611b59565b505050565b611948611e88565b73ffffffffffffffffffffffffffffffffffffffff166119666110f8565b73ffffffffffffffffffffffffffffffffffffffff16146119bc576040517f08c379a00000000000000000000000000000000000000000000000000000000081526004016119b390612534565b60405180910390fd5b565b60006001905090565b600080829050806119d66119be565b11611a5e57600254811015611a5d5760006006600083815260200190815260200160002054905060007c010000000000000000000000000000000000000000000000000000000082161415611a5b575b6000811415611a51576006600083600190039350838152602001908152602001600020549050611a26565b8092505050611a90565b505b5b6040517fdf2d9b4200000000000000000000000000000000000000000000000000000000815260040160405180910390fd5b919050565b60008060006008600085815260200190815260200160002090508092508254915050915091565b600073ffffffffffffffffffffffffffffffffffffffff8316925073ffffffffffffffffffffffffffffffffffffffff821691508382148383141790509392505050565b50505050565b60008060e883901c905060e8611b1d868684611e90565b62ffffff16901b9150509392505050565b600073ffffffffffffffffffffffffffffffffffffffff83169250814260a01b178317905092915050565b50505050565b6000611b696119be565b60025403905090565b60008060009054906101000a900473ffffffffffffffffffffffffffffffffffffffff169050816000806101000a81548173ffffffffffffffffffffffffffffffffffffffff021916908373ffffffffffffffffffffffffffffffffffffffff1602179055508173ffffffffffffffffffffffffffffffffffffffff168173ffffffffffffffffffffffffffffffffffffffff167f8be0079c531659141344cd1fd0a4f28419497f9722a3daafe3b4186f6b6457e060405160405180910390a35050565b60008373ffffffffffffffffffffffffffffffffffffffff1663150b7a02611c5c61177a565b8786866040518563ffffffff1660e01b8152600401611c7e949392919061246b565b602060405180830381600087803b158015611c9857600080fd5b505af1925050508015611cc957506040513d601f19601f82011682018060405250810190611cc6919061218f565b60015b611d43573d8060008114611cf9576040519150601f19603f3d011682016040523d82523d6000602084013e611cfe565b606091505b50600081511415611d3b576040517fd1a57ed600000000000000000000000000000000000000000000000000000000815260040160405180910390fd5b805181602001fd5b63150b7a0260e01b7bffffffffffffffffffffffffffffffffffffffffffffffffffffffff1916817bffffffffffffffffffffffffffffffffffffffffffffffffffffffff191614915050949350505050565b6060600b8054611da59061286d565b80601f0160208091040260200160405190810160405280929190818152602001828054611dd19061286d565b8015611e1e5780601f10611df357610100808354040283529160200191611e1e565b820191906000526020600020905b815481529060010190602001808311611e0157829003601f168201915b5050505050905090565b606060806040510190508060405280825b600115611e6457600183039250600a81066030018353600a8104905080611e5f57611e64565b611e39565b508181036020830392508083525050919050565b60006001821460e11b9050919050565b600033905090565b60009392505050565b6000611eac611ea784612654565b61262f565b905082815260208101848484011115611ec857611ec7612962565b5b611ed384828561282b565b509392505050565b600081359050611eea81612b42565b92915050565b600081359050611eff81612b59565b92915050565b600081359050611f1481612b70565b92915050565b600081519050611f2981612b70565b92915050565b600082601f830112611f4457611f4361295d565b5b8135611f54848260208601611e99565b91505092915050565b600081359050611f6c81612b87565b92915050565b600060208284031215611f8857611f8761296c565b5b6000611f9684828501611edb565b91505092915050565b60008060408385031215611fb657611fb561296c565b5b6000611fc485828601611edb565b9250506020611fd585828601611edb565b9150509250929050565b600080600060608486031215611ff857611ff761296c565b5b600061200686828701611edb565b935050602061201786828701611edb565b925050604061202886828701611f5d565b9150509250925092565b6000806000806080858703121561204c5761204b61296c565b5b600061205a87828801611edb565b945050602061206b87828801611edb565b935050604061207c87828801611f5d565b925050606085013567ffffffffffffffff81111561209d5761209c612967565b5b6120a987828801611f2f565b91505092959194509250565b600080604083850312156120cc576120cb61296c565b5b60006120da85828601611edb565b92505060206120eb85828601611ef0565b9150509250929050565b6000806040838503121561210c5761210b61296c565b5b600061211a85828601611edb565b925050602061212b85828601611f5d565b9150509250929050565b60006020828403121561214b5761214a61296c565b5b600061215984828501611ef0565b91505092915050565b6000602082840312156121785761217761296c565b5b600061218684828501611f05565b91505092915050565b6000602082840312156121a5576121a461296c565b5b60006121b384828501611f1a565b91505092915050565b6000602082840312156121d2576121d161296c565b5b60006121e084828501611f5d565b91505092915050565b6121f2816127b7565b82525050565b612201816127c9565b82525050565b600061221282612685565b61221c818561269b565b935061222c81856020860161283a565b61223581612971565b840191505092915050565b600061224b82612690565b61225581856126b7565b935061226581856020860161283a565b61226e81612971565b840191505092915050565b600061228482612690565b61228e81856126c8565b935061229e81856020860161283a565b80840191505092915050565b60006122b76026836126b7565b91506122c282612982565b604082019050919050565b60006122da6014836126b7565b91506122e5826129d1565b602082019050919050565b60006122fd6020836126b7565b9150612308826129fa565b602082019050919050565b60006123206019836126b7565b915061232b82612a23565b602082019050919050565b60006123436019836126b7565b915061234e82612a4c565b602082019050919050565b60006123666000836126ac565b915061237182612a75565b600082019050919050565b60006123896019836126b7565b915061239482612a78565b602082019050919050565b60006123ac601f836126b7565b91506123b782612aa1565b602082019050919050565b60006123cf6014836126b7565b91506123da82612aca565b602082019050919050565b60006123f26023836126b7565b91506123fd82612af3565b604082019050919050565b61241181612821565b82525050565b60006124238285612279565b915061242f8284612279565b91508190509392505050565b600061244682612359565b9150819050919050565b600060208201905061246560008301846121e9565b92915050565b600060808201905061248060008301876121e9565b61248d60208301866121e9565b61249a6040830185612408565b81810360608301526124ac8184612207565b905095945050505050565b60006020820190506124cc60008301846121f8565b92915050565b600060208201905081810360008301526124ec8184612240565b905092915050565b6000602082019050818103600083015261250d816122aa565b9050919050565b6000602082019050818103600083015261252d816122cd565b9050919050565b6000602082019050818103600083015261254d816122f0565b9050919050565b6000602082019050818103600083015261256d81612313565b9050919050565b6000602082019050818103600083015261258d81612336565b9050919050565b600060208201905081810360008301526125ad8161237c565b9050919050565b600060208201905081810360008301526125cd8161239f565b9050919050565b600060208201905081810360008301526125ed816123c2565b9050919050565b6000602082019050818103600083015261260d816123e5565b9050919050565b60006020820190506126296000830184612408565b92915050565b600061263961264a565b9050612645828261289f565b919050565b6000604051905090565b600067ffffffffffffffff82111561266f5761266e61292e565b5b61267882612971565b9050602081019050919050565b600081519050919050565b600081519050919050565b600082825260208201905092915050565b600081905092915050565b600082825260208201905092915050565b600081905092915050565b60006126de82612821565b91506126e983612821565b9250827fffffffffffffffffffffffffffffffffffffffffffffffffffffffffffffffff0382111561271e5761271d6128d0565b5b828201905092915050565b600061273482612821565b915061273f83612821565b9250817fffffffffffffffffffffffffffffffffffffffffffffffffffffffffffffffff0483118215151615612778576127776128d0565b5b828202905092915050565b600061278e82612821565b915061279983612821565b9250828210156127ac576127ab6128d0565b5b828203905092915050565b60006127c282612801565b9050919050565b60008115159050919050565b60007fffffffff0000000000000000000000000000000000000000000000000000000082169050919050565b600073ffffffffffffffffffffffffffffffffffffffff82169050919050565b6000819050919050565b82818337600083830152505050565b60005b8381101561285857808201518184015260208101905061283d565b83811115612867576000848401525b50505050565b6000600282049050600182168061288557607f821691505b60208210811415612899576128986128ff565b5b50919050565b6128a882612971565b810181811067ffffffffffffffff821117156128c7576128c661292e565b5b80604052505050565b7f4e487b7100000000000000000000000000000000000000000000000000000000600052601160045260246000fd5b7f4e487b7100000000000000000000000000000000000000000000000000000000600052602260045260246000fd5b7f4e487b7100000000000000000000000000000000000000000000000000000000600052604160045260246000fd5b600080fd5b600080fd5b600080fd5b600080fd5b6000601f19601f8301169050919050565b7f4f776e61626c653a206e6577206f776e657220697320746865207a65726f206160008201527f6464726573730000000000000000000000000000000000000000000000000000602082015250565b7f4661696c656420746f2073656e64204574686572000000000000000000000000600082015250565b7f4f776e61626c653a2063616c6c6572206973206e6f7420746865206f776e6572600082015250565b7f436f6e74726163742063757272656e746c792070617573656400000000000000600082015250565b7f45746865722073656e74206973206e6f7420636f727265637400000000000000600082015250565b50565b7f457863656564206d6178696d756d2054415720737570706c7900000000000000600082015250565b7f5265656e7472616e637947756172643a207265656e7472616e742063616c6c00600082015250565b7f416374696f6e206e6f7420636f6d706c65746564000000000000000000000000600082015250565b7f4f6e6c79204f776e65722043616e2041636365737320546869732046756e637460008201527f696f6e0000000000000000000000000000000000000000000000000000000000602082015250565b612b4b816127b7565b8114612b5657600080fd5b50565b612b62816127c9565b8114612b6d57600080fd5b50565b612b79816127d5565b8114612b8457600080fd5b50565b612b9081612821565b8114612b9b57600080fd5b5056fea264697066735822122054bd82edd3baebe362b60137f9e0073595c752e5fa8f16f184791e326ef2226264736f6c63430008060033",
  "linkReferences": {},
  "deployedLinkReferences": {}
}